:020000040800F2
:100000000000022015220008A1120008A712000813
:10001000AD120008B3120008B91200080000000079
:10002000000000000000000000000000BF120008F7
:10003000CD12000800000000DB120008E9120008E1
:100040006522000865220008652200086522000874
:100050006522000865220008652200086522000864
:100060006522000865220008652200086522000854
:100070006522000865220008652200086522000844
:100080006522000865220008652200086522000834
:100090006522000865220008652200086522000824
:1000A0006522000865220008652200086522000814
:1000B0006522000865220008652200086522000804
:1000C00065220008652200086522000865220008F4
:1000D00065220008652200086522000865220008E4
:1000E00065220008652200086522000865220008D4
:1000F00065220008652200086522000865220008C4
:1001000065220008652200086522000865220008B3
:1001100065220008652200086522000865220008A3
:100120006522000865220008652200086522000893
:100130006522000865220008652200086522000883
:100140006522000865220008652200086522000873
:100150006522000865220008652200086522000863
:100160006522000865220008652200086522000853
:1001700065220008652200086522000800000000D2
:08018000652200086522000859
:1001900010B5054C237833B9044B13B10448AFF3C1
:1001A00000800123237010BD7000002000000000BB
:1001B0007847000808B5034B1BB103490348AFF368
:1001C000008008BD0000000074000020784700088F
:1001D000034613F8012B002AFBD1181A0138704787
:1001E00001F0FF01102A2BDB10F0070F08D010F8E8
:1001F000013B013A8B422DD010F0070F42B3F6D1EC
:10020000F0B441EA012141EA014122F007047FF004
:1002100000070023F0E80256083C85EA010586EA5B
:10022000010685FA47F5A3FA87F586FA47F6A5FA97
:1002300087F68EB9EED1F0BC01F0FF0102F00702A3
:1002400032B110F8013B013A83EA010313B1F8D14E
:100250000020704701387047002D06BF354603382F
:10026000073815F0010F07D1013015F4807F02BF68
:10027000013015F4C03F0130F0BC0138704700BFB9
:1002800081F0004102E000BF83F0004330B54FEA47
:1002900041044FEA430594EA050F08BF90EA020FB4
:1002A0001FBF54EA000C55EA020C7FEA645C7FEA47
:1002B000655C00F0E2804FEA5454D4EB5555B8BF6A
:1002C0006D420CDD2C4480EA020281EA030382EADB
:1002D000000083EA010180EA020281EA0303362D6D
:1002E00088BF30BD11F0004F4FEA01314FF4801C40
:1002F0004CEA113102D0404261EB410113F0004F52
:100300004FEA03334CEA133302D0524263EB430308
:1003100094EA050F00F0A780A4F10104D5F1200EA6
:100320000DDB02FA0EFC22FA05F2801841F1000101
:1003300003FA0EF2801843FA05F359410EE0A5F1D5
:1003400020050EF1200E012A03FA0EFC28BF4CF006
:10035000020C43FA05F3C01851EBE37101F00045BC
:1003600007D54FF0000EDCF1000C7EEB00006EEBC9
:100370000101B1F5801F1BD3B1F5001F0CD3490853
:100380005FEA30004FEA3C0C04F101044FEA4452AA
:1003900012F5800F80F09A80BCF1004F08BF5FEA31
:1003A000500C50F1000041EB045141EA050130BD11
:1003B0005FEA4C0C404141EB0101013C28BFB1F523
:1003C000801FE9D291F0000F04BF01460020B1FA6E
:1003D00081F308BF2033A3F10B03B3F120020CDA41
:1003E0000C3208DD02F1140CC2F10C0201FA0CF01F
:1003F00021FA02F10CE002F11402D8BFC2F1200C84
:1004000001FA02F120FA0CFCDCBF41EA0C01904039
:10041000E41AA2BF01EB0451294330BD6FEA040482
:100420001F3C1CDA0C340EDC04F11404C4F120026D
:1004300020FA04F001FA02F340EA030021FA04F37F
:1004400045EA030130BDC4F10C04C4F1200220FAD6
:1004500002F001FA04F340EA0300294630BD21FA14
:1004600004F0294630BD94F0000F83F4801306BFDA
:1004700081F480110134013D4EE77FEA645C18BFCE
:100480007FEA655C29D094EA050F08BF90EA020F65
:1004900005D054EA000C04BF1946104630BD91EA5D
:1004A000030F1EBF0021002030BD5FEA545C05D160
:1004B0004000494128BF41F0004130BD14F580049F
:1004C0003CBF01F5801130BD01F0004545F0FE4113
:1004D00041F470014FF0000030BD7FEA645C1ABF48
:1004E000194610467FEA655C1CBF0B46024650EA7F
:1004F000013406BF52EA033591EA030F41F40021AB
:1005000030BD00BF90F0000F04BF0021704730B530
:100510004FF4806404F132044FF000054FF0000105
:1005200050E700BF90F0000F04BF0021704730B5C6
:100530004FF4806404F1320410F0004548BF40429B
:100540004FF000013EE700BF42004FEAE2014FEAF0
:1005500031014FEA02701FBF12F07F4393F07F4FCB
:1005600081F06051704732F07F4208BF704793F0CE
:100570007F4F04BF41F40021704730B54FF46074E1
:1005800001F0004521F000411CE700BF50EA0102E4
:1005900008BF704730B54FF000050AE050EA01028D
:1005A00008BF704730B511F0004502D5404261EBFD
:1005B00041014FF4806404F132045FEA915C3FF43E
:1005C000D8AE4FF003025FEADC0C18BF03325FEADB
:1005D000DC0C18BF033202EBDC02C2F1200300FA8C
:1005E00003FC20FA02F001FA03FE40EA0E0021FAB1
:1005F00002F11444BDE600BF70B54FF0FF0C4CF49F
:10060000E06C1CEA11541DBF1CEA135594EA0C0F50
:1006100095EA0C0F00F0DEF82C4481EA030621EA8B
:100620004C5123EA4C5350EA013518BF52EA0335C6
:1006300041F4801143F4801338D0A0FB02CE4FF078
:100640000005E1FB02E506F00042E0FB03E54FF0A8
:100650000006E1FB03569CF0000F18BF4EF0010EA0
:10066000A4F1FF04B6F5007F64F5407404D25FEA9C
:100670004E0E6D4146EB060642EAC62141EA55514F
:100680004FEAC52040EA5E504FEACE2EB4F1FD0C91
:1006900088BFBCF5E06F1ED8BEF1004F08BF5FEA0F
:1006A000500E50F1000041EB045170BD06F00046C1
:1006B00046EA010140EA020081EA0301B4EB5C046E
:1006C000C2BFD4EB0C0541EA045170BD41F4801166
:1006D0004FF0000E013C00F3AB8014F1360FDEBF8B
:1006E000002001F0004170BDC4F10004203C35DA67
:1006F0000C341BDC04F11404C4F1200500FA05F3EA
:1007000020FA04F001FA05F240EA020001F000428A
:1007100021F0004110EBD37021FA04F642EB060100
:100720005EEA430E08BF20EAD37070BDC4F10C042A
:10073000C4F1200500FA04F320FA05F001FA04F2EE
:1007400040EA020001F0004110EBD37041F10001DA
:100750005EEA430E08BF20EAD37070BDC4F12005E5
:1007600000FA05F24EEA020E20FA04F301FA05F24D
:1007700043EA020321FA04F001F0004121FA04F2F5
:1007800020EA020000EBD3705EEA430E08BF20EAC5
:10079000D37070BD94F0000F0FD101F000464000FF
:1007A00041EB010111F4801F08BF013CF7D041EA81
:1007B000060195F0000F18BF704703F00046520085
:1007C00043EB030313F4801F08BF013DF7D043EA56
:1007D0000603704794EA0C0F0CEA135518BF95EA0C
:1007E0000C0F0CD050EA410618BF52EA4306D1D193
:1007F00081EA030101F000414FF0000070BD50EAB2
:10080000410606BF1046194652EA430619D094EA3B
:100810000C0F02D150EA013613D195EA0C0F05D125
:1008200052EA03361CBF104619460AD181EA030179
:1008300001F0004141F0FE4141F470014FF0000031
:1008400070BD41F0FE4141F4780170BD70B54FF0CC
:10085000FF0C4CF4E06C1CEA11541DBF1CEA13554C
:1008600094EA0C0F95EA0C0F00F0A7F8A4EB05042E
:1008700081EA030E52EA03354FEA013100F0888025
:100880004FEA03334FF0805545EA131343EA1263EE
:100890004FEA022245EA111545EA10654FEA0026A3
:1008A0000EF000419D4208BF964244F1FD0404F55C
:1008B000407402D25B084FEA3202B61A65EB0305B8
:1008C0005B084FEA32024FF480104FF4002CB6EB75
:1008D000020E75EB030E22BFB61A754640EA0C00F5
:1008E0005B084FEA3202B6EB020E75EB030E22BF35
:1008F000B61A754640EA5C005B084FEA3202B6EB76
:10090000020E75EB030E22BFB61A754640EA9C0034
:100910005B084FEA3202B6EB020E75EB030E22BF04
:10092000B61A754640EADC0055EA060E18D04FEAC2
:10093000051545EA16754FEA06164FEAC30343EA62
:1009400052734FEAC2025FEA1C1CC0D111F4801F2F
:100950000BD141EA00014FF000004FF0004CB6E728
:1009600011F4801F04BF01430020B4F1FD0C88BFC7
:10097000BCF5E06F3FF6AFAEB5EB030C04BFB6EBD2
:10098000020C5FEA500C50F1000041EB045170BDC5
:100990000EF0004E4EEA113114EB5C04C2BFD4EBF2
:1009A0000C0541EA045170BD41F480114FF0000E76
:1009B000013C90E645EA060E8DE60CEA135594EAF2
:1009C0000C0F08BF95EA0C0F3FF43BAF94EA0C0FF5
:1009D0000AD150EA01347FF434AF95EA0C0F7FF46A
:1009E00025AF104619462CE795EA0C0F06D152EABE
:1009F00003353FF4FDAE1046194622E750EA4106A2
:100A000018BF52EA43067FF4C5AE50EA41047FF4B2
:100A10000DAF52EA43057FF4EBAE12E74FF0FF3C17
:100A200006E000BF4FF0010C02E000BF4FF0010CE8
:100A30004DF804CD4FEA410C7FEA6C5C4FEA430C61
:100A400018BF7FEA6C5C1BD001B050EA410C0CBFB0
:100A500052EA430C91EA030F02BF90EA020F002012
:100A6000704710F1000F91EA030F58BF994208BF79
:100A700090422CBFD8176FEAE37040F00100704736
:100A80004FEA410C7FEA6C5C02D150EA013C07D18D
:100A90004FEA430C7FEA6C5CD6D152EA033CD3D0D8
:100AA0005DF8040B704700BF8446104662468C46D2
:100AB0001946634600E000BF01B5FFF7B7FF002805
:100AC00048BF10F1000F01BD4DF808EDFFF7F4FF2E
:100AD0000CBF012000205DF808FB00BF4DF808EDB9
:100AE000FFF7EAFF34BF012000205DF808FB00BFDC
:100AF0004DF808EDFFF7E0FF94BF012000205DF8FE
:100B000008FB00BF4DF808EDFFF7CEFF94BF0120B2
:100B100000205DF808FB00BF4DF808EDFFF7C4FFAB
:100B200034BF012000205DF808FB00BF4FEA4102FE
:100B300012F5001215D211D56FF47873B3EB62522F
:100B400012D94FEAC12343F0004343EA505311F056
:100B5000004F23FA02F018BF404270474FF00000E8
:100B6000704750EA013005D111F0004008BF6FF026
:100B7000004070474FF00000704700BF4FEA41024D
:100B8000B2F1E04324BFB3F5001CDCF1FE5C0DD9EB
:100B900001F0004C4FEAC0024CEA5070B2F1004F35
:100BA00040EB830008BF20F00100704711F0804F38
:100BB00021D113F13872BCBF01F00040704741F4FD
:100BC00080114FEA5252C2F11802C2F1200C10FA01
:100BD0000CF320FA02F018BF40F001004FEAC123E5
:100BE0004FEAD32303FA0CFC40EA0C0023FA02F389
:100BF0004FEA4303CCE77FEA625307D150EA01335F
:100C00001EBF4FF0FE4040F44000704701F000402E
:100C100040F0FE4040F40000704700BF53B94AB9AD
:100C2000002908BF00281CBF4FF0FF314FF0FF30F4
:100C300000F074B9ADF1080C6DE904CE00F006F8CF
:100C4000DDF804E0DDE9022304B070472DE9F04748
:100C5000089D04468E46002B4DD18A42944669D9A0
:100C6000B2FA82F252B101FA02F3C2F1200120FA83
:100C700001F10CFA02FC41EA030E94404FEA1C48D1
:100C8000210CBEFBF8F61FFA8CF708FB16E341EACD
:100C9000034306FB07F199420AD91CEB030306F153
:100CA000FF3080F01F81994240F21C81023E634474
:100CB0005B1AA4B2B3FBF8F008FB103344EA034418
:100CC00000FB07F7A7420AD91CEB040400F1FF332D
:100CD00080F00A81A74240F207816444023840EA6A
:100CE0000640E41B00261DB1D4400023C5E90043A3
:100CF0003146BDE8F0878B4209D9002D00F0EF8026
:100D00000026C5E9000130463146BDE8F087B3FA58
:100D100083F6002E4AD18B4202D3824200F2F98040
:100D2000841A61EB030301209E46002DE0D0C5E943
:100D3000004EDDE702B9FFDEB2FA82F2002A40F08F
:100D40009280A1EB0C014FEA1C471FFA8CFE012692
:100D5000200CB1FBF7F307FB131140EA01410EFB36
:100D600003F0884208D91CEB010103F1FF3802D2DD
:100D7000884200F2CB804346091AA4B2B1FBF7F0D7
:100D800007FB101144EA01440EFB00FEA64508D9FA
:100D90001CEB040400F1FF3102D2A64500F2BB8037
:100DA0000846A4EB0E0440EA03409CE7C6F1200786
:100DB000B34022FA07FC4CEA030C20FA07F401FACC
:100DC00006F31C43F9404FEA1C4900FA06F3B1FB55
:100DD000F9F8200C1FFA8CFE09FB181140EA0141BA
:100DE00008FB0EF0884202FA06F20BD91CEB010157
:100DF00008F1FF3A80F08880884240F28580A8F1AF
:100E000002086144091AA4B2B1FBF9F009FB101100
:100E100044EA014100FB0EFE8E4508D91CEB01019E
:100E200000F1FF346CD28E456AD90238614440EA41
:100E30000840A0FB0294A1EB0E01A142C846A646C1
:100E400056D353D05DB1B3EB080261EB0E0101FA4A
:100E500007F722FA06F3F1401F43C5E900710026A7
:100E60003146BDE8F087C2F12003D8400CFA02FCFD
:100E700021FA03F3914001434FEA1C471FFA8CFE0D
:100E8000B3FBF7F007FB10360B0C43EA064300FBFD
:100E90000EF69E4204FA02F408D91CEB030300F19B
:100EA000FF382FD29E422DD9023863449B1B89B252
:100EB000B3FBF7F607FB163341EA034106FB0EF3DB
:100EC0008B4208D91CEB010106F1FF3816D28B4288
:100ED00014D9023E6144C91A46EA004638E72E4654
:100EE000284605E70646E3E61846F8E64B45A9D24C
:100EF000B9EB020864EB0C0E0138A3E74646EAE7BB
:100F0000204694E74046D1E7D0467BE7023B614468
:100F100032E7304609E76444023842E7704700BFD1
:100F200080B483B000AF786039604FF06043D3F88D
:100F3000803E03F00103002B19D04FF06043D3F83B
:100F4000002E7B6822FA03F303F00103002B0ED07E
:100F500000E000BF4FF060427B6852F82330002B66
:100F6000F7D04FF060417B683A6841F8232000BF1A
:100F70000C37BD465DF8047B70470EB490B59AB04F
:100F800000AF786007F110037B6607F17803FB6020
:100F900007F11003FA68796F184601F01DFA002373
:100FA00087F863300DE07B6E1B7819467868FFF791
:100FB000B7FF7B6E01337B6697F86330013387F8A8
:100FC000633097F8634007F110031846FFF700F904
:100FD00003469C42E7D300BF00BF6837BD46BDE86B
:100FE000904003B0704780B586B000AFF860B9603C
:100FF0007A6000237B610AE0BB685A1CBA601B78E8
:1010000019460420FFF78CFF7B6901337B617A6905
:101010007B689A42F0DB7B6818461837BD4680BD76
:1010200080B582B000AF01F04DF800F0A1F800F0FB
:1010300003F900237B60484801F0B0F9474B5B6936
:10104000464A83F470435361642001F0ADF87A6836
:1010500043490120FFF791FF7B680A337B60786882
:10106000FFF750FA3AA3D3E90023FFF7C5FA024687
:101070000B46104619464FF000023A4BFFF7E6FBCD
:1010800002460B4643EC172BB0EE470AF0EE670A18
:1010900002F086F951EC100B4FF00002324BFFF7D3
:1010A000ABFA02460B46104619464FF000022E4B93
:1010B000FFF7ECF802460B4610461946FFF75EFDB7
:1010C00003463B60D7ED007AFCEEE77A17EE901A04
:1010D0000220FFF725FF7868FFF714FA1CA3D3E975
:1010E0000023FFF789FA02460B46104619464FF0D7
:1010F00000021E4BFFF7AAFB02460B4643EC172BE0
:10110000B0EE470AF0EE670A02F04AF951EC100B14
:101110004FF00002144BFFF76FFA02460B461046E1
:1011200019464FF00002104BFFF7B0F802460B468D
:1011300010461946FFF722FD03463B60D7ED007AC3
:10114000FCEEE77A17EE901A0320FFF7E9FE75E749
:10115000182D4454FB21094090470008000C024020
:10116000A8470008008066400000244000804640F8
:1011700080B594B000AF07F120033022002118465B
:1011800001F096F807F10C0300221A605A609A6089
:10119000DA601A610023BB60224B1B6C214A43F0CA
:1011A000805313641F4B1B6C03F08053BB60BB6800
:1011B00000237B601C4B1B681B4A43F48043136075
:1011C000194B1B6803F480437B607B6802233B62FE
:1011D0000123FB6210233B630023BB6307F1200361
:1011E000184600F0AFF80346002B01D000F01EF8BF
:1011F0000F23FB6000233B6100237B610023BB6165
:101200000023FB6107F10C030021184600F012FBDC
:101210000346002B01D000F009F800BF5037BD464F
:1012200080BD00BF003802400070004080B400AFB5
:1012300072B600BFFEE7000080B586B000AF3B1D70
:1012400000221A605A609A60DA601A6100233B60DB
:10125000114B1B6B104A43F0080313630E4B1B6BBF
:1012600003F008033B603B6800224FF470410B48D9
:1012700000F028FE4FF470437B600123BB60002325
:10128000FB6003233B613B1D1946044800F07EFCD4
:1012900000BF1837BD4680BD00380240000C024038
:1012A00080B400AFFEE780B400AFFEE780B400AFCB
:1012B000FEE780B400AFFEE780B400AFFEE780B485
:1012C00000AF00BFBD465DF8047B704780B400AF3F
:1012D00000BFBD465DF8047B704780B400AF00BF1F
:1012E000BD465DF8047B704780B500AF00F03CFF61
:1012F00000BF80BD80B483B000AF00237B60104B83
:101300005B6C0F4A43F4804353640D4B5B6C03F4F6
:1013100080437B607B6800233B60094B1B6C084A61
:1013200043F080531364064B1B6C03F080533B6007
:101330003B6800BF0C37BD465DF8047B704700BFBB
:101340000038024080B586B000AF78607B68002B23
:1013500001D1012367E27B681B6803F00103002BC6
:1013600075D0884B9B6803F00C03042B0CD0854B85
:101370009B6803F00C03082B12D1824B5B6803F4CB
:101380008003B3F5800F0BD17E4B1B6803F4003351
:10139000002B5BD07B685B68002B57D1012342E2B6
:1013A0007B685B68B3F5803F06D1764B1B68754A56
:1013B00043F4803313601DE07B685B68B3F5A02FB6
:1013C0000CD1704B1B686F4A43F4802313606D4B44
:1013D0001B686C4A43F4803313600BE0694B1B6855
:1013E000684A23F480331360664B1B68654A23F414
:1013F000802313607B685B68002B13D000F0C8FE6D
:10140000386108E000F0C4FE02463B69D31A642B41
:1014100001D9032307E25B4B1B6803F40033002B65
:10142000F0D014E000F0B4FE386108E000F0B0FE47
:1014300002463B69D31A642B01D90323F3E1514BD4
:101440001B6803F40033002BF0D100E000BF7B6881
:101450001B6803F00203002B63D04A4B9B6803F028
:101460000C03002B0BD0474B9B6803F00C03082B9D
:101470001CD1444B5B6803F48003002B16D1414B15
:101480001B6803F00203002B05D07B68DB68012B8F
:1014900001D00123C7E13B4B1B6823F0F8027B68B6
:1014A0001B69DB00374913430B603AE07B68DB685C
:1014B000002B20D0344B01221A6000F069FE386105
:1014C00008E000F065FE02463B69D31A022B01D901
:1014D0000323A8E12B4B1B6803F00203002BF0D081
:1014E000284B1B6823F0F8027B681B69DB00254949
:1014F00013430B6015E0244B00221A6000F048FEF5
:10150000386108E000F044FE02463B69D31A022B22
:1015100001D9032387E11B4B1B6803F00203002B57
:10152000F0D17B681B6803F00803002B36D07B6882
:101530005B69002B16D0154B01221A6000F028FEC3
:10154000386108E000F024FE02463B69D31A022B02
:1015500001D9032367E10B4B5B6F03F00203002B00
:10156000F0D01BE0094B00221A6000F011FE386138
:101570000EE000F00DFE02463B69D31A022B07D99C
:10158000032350E10038024000004742800E4742EA
:10159000884B5B6F03F00203002BEAD17B681B686A
:1015A00003F00403002B00F097800023FB75814BB0
:1015B0001B6C03F08053002B0FD10023BB607D4BCD
:1015C0001B6C7C4A43F0805313647A4B1B6C03F012
:1015D0008053BB60BB680123FB75774B1B6803F42A
:1015E0008073002B18D1744B1B68734A43F48073CB
:1015F000136000F0CDFD386108E000F0C9FD02463F
:101600003B69D31A022B01D903230CE16A4B1B68F7
:1016100003F48073002BF0D07B689B68012B06D10C
:10162000644B1B6F634A43F0010313671CE07B6844
:101630009B68052B0CD15F4B1B6F5E4A43F0040384
:1016400013675C4B1B6F5B4A43F0010313670BE0AE
:10165000584B1B6F574A23F001031367554B1B6F01
:10166000544A23F0040313677B689B68002B15D052
:1016700000F08EFD38610AE000F08AFD02463B6909
:10168000D31A41F28832934201D90323CBE0494B6C
:101690001B6F03F00203002BEED014E000F078FD86
:1016A00038610AE000F074FD02463B69D31A41F24A
:1016B0008832934201D90323B5E03E4B1B6F03F000
:1016C0000203002BEED1FB7D012B05D1394B1B6CA6
:1016D000384A23F0805313647B689B69002B00F029
:1016E000A180344B9B6803F00C03082B5CD07B6813
:1016F0009B69022B41D1314B00221A6000F048FD5A
:10170000386108E000F044FD02463B69D31A022B21
:1017100001D9032387E0274B1B6803F00073002BDC
:10172000F0D17B68DA697B681B6A1A437B685B6A65
:101730009B011A437B689B6A5B08013B1B041A43AD
:101740007B68DB6A1B061B4913434B601B4B012262
:101750001A6000F01DFD386108E000F019FD024636
:101760003B69D31A022B01D903235CE0114B1B68A0
:1017700003F00073002BF0D054E0104B00221A60ED
:1017800000F006FD386108E000F002FD02463B690A
:10179000D31A022B01D9032345E0064B1B6803F043
:1017A0000073002BF0D13DE07B689B69012B07D1D2
:1017B000012338E0003802400070004060004742DA
:1017C0001B4B5B68FB607B689B69012B28D0FB6827
:1017D00003F480027B68DB699A4221D1FB6803F045
:1017E0003F027B681B6A9A421AD1FA6847F6C073B7
:1017F00013407A68526A9201934211D1FB6803F454
:1018000040327B689B6A5B08013B1B049A4207D10C
:10181000FB6803F070627B68DB6A1B069A4201D0AA
:10182000012300E0002318461837BD4680BD00BFE5
:101830000038024080B584B000AF786039607B68C2
:10184000002B01D10123CCE0684B1B6803F0070398
:101850003A689A420CD9654B3A68D2B21A70634B17
:101860001B6803F007033A689A4201D00123B8E0ED
:101870007B681B6803F00203002B20D07B681B6889
:1018800003F00403002B05D0594B9B68584A43F4DE
:10189000E05393607B681B6803F00803002B05D0BE
:1018A000534B9B68524A43F460439360504B9B6890
:1018B00023F0F0027B689B684D4913438B607B6883
:1018C0001B6803F00103002B44D07B685B68012B8D
:1018D00007D1474B1B6803F40033002B19D10123B8
:1018E0007FE07B685B68022B03D07B685B68032B1F
:1018F00007D13F4B1B6803F00073002B09D1012374
:101900006FE03B4B1B6803F00203002B01D1012366
:1019100067E0374B9B6823F003027B685B683449C0
:1019200013438B6000F034FCF8600AE000F030FCF8
:101930000246FB68D31A41F28832934201D903234D
:101940004FE02B4B9B6803F00C027B685B689B00AD
:101950009A42EBD1254B1B6803F007033A689A4281
:101960000CD2224B3A68D2B21A70204B1B6803F09B
:1019700007033A689A4201D0012332E07B681B6872
:1019800003F00403002B08D0194B9B6823F4E052AA
:101990007B68DB68164913438B607B681B6803F028
:1019A0000803002B09D0124B9B6823F460427B682C
:1019B0001B69DB000E4913438B6000F021F80246DF
:1019C0000B4B9B681B0903F00F030A49CB5C22FAFF
:1019D00003F3094A1360094B1B68184600F094FB97
:1019E000002318461037BD4680BD00BF003C0240B2
:1019F00000380240B847000808000020000000201E
:101A00002DE9B04F90B000AF00237B630023FB6350
:101A100000233B630023BB63594B9B6803F00C031B
:101A2000082B0DD0082B00F2A180002B02D0042B34
:101A300003D09BE0534BBB639BE0534BBB6398E0ED
:101A40004F4B5B6803F03F037B634D4B5B6803F4D4
:101A50008003002B28D04A4B5B689B0900223B6225
:101A60007A623B6AC3F308000021474B03FB01F293
:101A7000002300FB03F31344434AA0FB0212FA6263
:101A80000A46BA62FA6A1344FB627B6B0022BB61AE
:101A9000FA61D7E90623D7E90A01FFF7BFF8024642
:101AA0000B461346FB6353E0354B5B689B090022F2
:101AB0003B617A613B69C3F3080A4FF0000B524661
:101AC0005B464FF000004FF00001590141EAD2613E
:101AD000500102460B46B2EB0A0863EB0B094FF0CC
:101AE00000024FF000034FEA891343EA98634FEA7C
:101AF0008812B2EB080463EB09054FF000024FF0C7
:101B00000003EB0043EA5473E20014461D4614EB55
:101B10000A033B6045EB0B037B604FF000024FF084
:101B20000003D7E9004529468B02214643EA915339
:101B300021468A02104619467B6B0022BB60FA6080
:101B4000D7E90223FFF76AF802460B461346FB6308
:101B50000B4B5B681B0C03F0030301335B003B631F
:101B6000FA6B3B6BB2FBF3F3BB6302E0054BBB6369
:101B700000BFBB6B18464037BD46BDE8B08F00BF05
:101B8000003802400024F40040787D0180B489B020
:101B900000AF7860396000237B6100233B61002344
:101BA000BB610023FB616BE10122FB6902FA03F3D5
:101BB0007B613B681B687A6913403B613A697B69CA
:101BC0009A4240F05A813B685B6803F00303012BA3
:101BD00005D03B685B6803F00303022B30D17B68C0
:101BE0009B68BB61FB695B00032202FA03F3DB43E2
:101BF000BA691340BB613B68DA68FB695B0002FAB3
:101C000003F3BA691343BB617B68BA699A607B6866
:101C10005B68BB610122FB6902FA03F3DB43BA692B
:101C20001340BB613B685B681B0903F00102FB6961
:101C300002FA03F3BA691343BB617B68BA695A605D
:101C40003B685B6803F00303032B17D07B68DB68FA
:101C5000BB61FB695B00032202FA03F3DB43BA6951
:101C60001340BB613B689A68FB695B0002FA03F3AF
:101C7000BA691343BB617B68BA69DA603B685B6829
:101C800003F00303022B23D1FB69DA087B680832D7
:101C900053F82230BB61FB6903F007039B000F225E
:101CA00002FA03F3DB43BA691340BB613B681A696C
:101CB000FB6903F007039B0002FA03F3BA691343BD
:101CC000BB61FB69DA087B680832B96943F8221006
:101CD0007B681B68BB61FB695B00032202FA03F3AC
:101CE000DB43BA691340BB613B685B6803F00302E6
:101CF000FB695B0002FA03F3BA691343BB617B68BB
:101D0000BA691A603B685B6803F44033002B00F04B
:101D1000B4800023FB60604B5B6C5F4A43F48043FC
:101D200053645D4B5B6C03F48043FB60FB685B4A70
:101D3000FB699B08023352F82330BB61FB6903F057
:101D400003039B000F2202FA03F3DB43BA6913403B
:101D5000BB617B68524A93422BD07B68514A9342C5
:101D600025D07B68504A93421FD07B684F4A9342EC
:101D700019D07B684E4A934213D07B684D4A9342F8
:101D80000DD07B684C4A934207D07B684B4A934204
:101D900001D107230EE008230CE006230AE0052307
:101DA00008E0042306E0032304E0022302E0012309
:101DB00000E00023FA6902F0030292009340BA693E
:101DC0001343BB613549FB699B080233BA6941F88B
:101DD00023203B4B9B68BB613B69DB43BA691340E3
:101DE000BB613B685B6803F48013002B03D0BA69C6
:101DF0003B691343BB61324ABB699360304BDB687C
:101E0000BB613B69DB43BA691340BB613B685B68FC
:101E100003F40013002B03D0BA693B691343BB6181
:101E2000274ABB69D360264B5B68BB613B69DB43D8
:101E3000BA691340BB613B685B6803F40033002B55
:101E400003D0BA693B691343BB611D4ABB69536048
:101E50001B4B1B68BB613B69DB43BA691340BB6129
:101E60003B685B6803F48033002B03D0BA693B699D
:101E70001343BB61124ABB691360FB690133FB6109
:101E8000FB690F2B7FF690AE00BF00BF2437BD4625
:101E90005DF8047B704700BF003802400038014005
:101EA000000002400004024000080240000C024012
:101EB000001002400014024000180240001C0240C2
:101EC000003C014080B483B000AF78600B467B805B
:101ED00013467B707B78002B03D07A887B689A61ED
:101EE00003E07B881A047B689A6100BF0C37BD460B
:101EF0005DF8047B7047000080B485B000AF786067
:101F00007B6803F00703FB600C4BDB68BB60BA68BF
:101F10004FF6FF031340BB60FB681A02BB68134314
:101F200043F0BF6343F40033BB60044ABB68D36033
:101F300000BF1437BD465DF8047B704700ED00E03C
:101F400080B400AF044BDB681B0A03F0070318469C
:101F5000BD465DF8047B704700ED00E080B483B0BF
:101F600000AF03463960FB7197F90730002B0ADB9D
:101F70003B68DAB20C4997F907301201D2B20B4430
:101F800083F800230AE03B68DAB20849FB7903F0E2
:101F90000F03043B1201D2B20B441A7600BF0C3778
:101FA000BD465DF8047B704700E100E000ED00E015
:101FB00080B489B000AFF860B9607A60FB6803F064
:101FC0000703FB61FB69C3F10703042B28BF04234C
:101FD000BB61FB690433062B02D9FB69033B00E0BC
:101FE00000237B614FF0FF32BB6902FA03F3DA434F
:101FF000BB681A407B699A404FF0FF317B6901FA58
:1020000003F3D9437B680B40134318462437BD467E
:102010005DF8047B7047000080B582B000AF786047
:102020007B68013BB3F1807F01D301230FE00A4AB3
:102030007B68013B53600F214FF0FF30FFF78EFFAD
:10204000054B00229A60044B07221A6000231846B1
:102050000837BD4680BD00BF10E000E080B582B00B
:1020600000AF78607868FFF747FF00BF0837BD46CC
:1020700080BD80B586B000AF0346B9607A60FB735F
:1020800000237B61FFF75CFF78617A68B968786943
:10209000FFF78EFF024697F90F3011461846FFF7FB
:1020A0005DFF00BF1837BD4680BD80B582B000AF70
:1020B00078607868FFF7B0FF034618460837BD46DA
:1020C00080BD000080B500AF0E4B1B680D4A43F485
:1020D000007313600B4B1B680A4A43F48063136060
:1020E000084B1B68074A43F4807313600320FFF713
:1020F000B5FF0F2000F008F8FFF7FCF800231846A2
:1021000080BD00BF003C024080B582B000AF786067
:10211000124B1A68124B1B7819464FF47A73B3FBB3
:10212000F1F3B2FBF3F31846FFF7BFFF0346002BB2
:1021300001D001230EE07B680F2B0AD800227968BA
:102140004FF0FF30FFF795FF064A7B6813600023CE
:1021500000E0012318460837BD4680BD0800002076
:10216000040000200000002080B400AF064B1B7864
:102170001A46064B1B681344044A136000BFBD4651
:102180005DF8047B704700BF040000208C00002035
:1021900080B400AF034B1B681846BD465DF8047B56
:1021A000704700BF8C00002080B584B000AF78601D
:1021B000FFF7EEFFB8607B68FB60FB68B3F1FF3FA1
:1021C00005D00A4B1B781A46FB681344FB6000BF1E
:1021D000FFF7DEFF0246BB68D31AFA689A42F7D8C7
:1021E00000BF00BF1037BD4680BD00BF0400002007
:1021F00080B400AF064BD3F88830054A43F470032F
:10220000C2F8883000BFBD465DF8047B704700BF50
:1022100000ED00E0DFF834D00D480E490E4A0023EF
:1022200002E0D458C4500433C4188C42F9D30B4A8A
:102230000B4C002301E013600432A242FBD3FFF7F2
:10224000D7FF00F011F8FEF7EBFE70470000022008
:102250000000002070000020484A000870000020A4
:10226000A4000020FEE7000070B50D4D0D4C641B6E
:10227000A4100026A64209D10B4D0C4C02F07CFAAA
:10228000641BA4100026A64205D170BD55F8043B7E
:1022900098470136EEE755F8043B98470136F2E7D8
:1022A000404A0008404A0008404A0008444A0008E2
:1022B00002440346934200D1704703F8011BF9E73B
:1022C00070B50E46054618B183690BB900F068FA7F
:1022D000AB69AC6813B9284600F062FA2C4B9C42FB
:1022E00020D16C68636EDB0705D4A389980502D4FE
:1022F000A06D00F0F3FAA38919071DD52369DBB19E
:10230000013EA36816F8011F013BA36039BB002BF7
:1023100038DA22460A21284600F068F8013011D048
:102320000A2511E01B4B9C4201D1AC68DAE71A4B3D
:102330009C4208BFEC68D5E72146284600F0A8F883
:102340000028DDD04FF0FF35636EDA0705D4A3898E
:102350009B0502D4A06D00F0C2FA284670BD002B88
:1023600004DAA2699A4206DC0A2904D023685A1CBE
:1023700022601970C5E72246284600F037F8013080
:10238000BFD1DFE723680A255A1C22601D70DBE7F6
:10239000EC4700080C480008CC470008024B0146F7
:1023A0001868FFF78DBF00BF0C00002000B59BB080
:1023B000009104916FF0004105910291054903914C
:1023C000694600F02FFC009B00221A701BB05DF8DC
:1023D00004FB00BF0802FFFF13460A4601460248FD
:1023E0000068FFF7E3BF00BF0C000020F8B50E4601
:1023F0001446054618B183690BB900F0D1F9214B99
:102400009C422BD16C68A369A360A3891A072FD5BE
:1024100023696BB323692068C01A6369F6B28342EB
:10242000374604DC2146284600F026F930BBA36875
:10243000013BA36023685A1C22601E70636901304F
:10244000834204D0A389DB0706D50A2E04D1214696
:10245000284600F011F988B93846F8BD0A4B9C426D
:1024600001D1AC68CFE7094B9C4208BFEC68CAE7D2
:102470002146284600F00CF80028CBD04FF0FF375B
:10248000EAE700BFEC4700080C480008CC4700080A
:10249000324B70B51D6806460C4625B1AB6913B9C1
:1024A000284600F07DF92E4B9C420FD16C68A38921
:1024B000B4F90C2019072CD4DD0611D4092333609C
:1024C00042F04003A3814FF0FF303EE0254B9C4299
:1024D00001D1AC68EBE7244B9C4208BFEC68E6E70F
:1024E000580712D5616B41B104F14403994202D0FF
:1024F000304600F05BFA00236363A38923F02403D2
:10250000A3810023636023692360A38943F0080348
:10251000A38123694BB9A38903F42073B3F5007F2A
:1025200003D02146304600F001FAA089B4F90C200E
:1025300010F001030AD00023A36063695B42A3612A
:10254000236943B910F08000BAD170BD810758BF2C
:102550006369A360F4E70020F7E700BF0C000020E8
:10256000EC4700080C480008CC4700088A892DE990
:10257000F041054610070C4658D44B68002B05DC8B
:102580000B6C002B02DC0020BDE8F081E66A002E17
:10259000F9D0002312F480522F682B6032D0606D86
:1025A000A3895A0705D56368C01A636B0BB1236C06
:1025B000C01A00230246E66A216A2846B047431C37
:1025C000A38906D129681D292CD82A4ACA40D607D2
:1025D00028D500226260D9042269226004D5421CF9
:1025E00001D12B6803B96065616B2F600029CAD0E7
:1025F00004F14403994202D0284600F0D7F90020A4
:102600006063C1E7216A01232846B047411CC7D156
:102610002B68002BC4D01D2B01D0162B01D12F60AD
:10262000B1E7A38943F04003A381ADE70F69002F11
:10263000A9D093070E6808BF4B690F6018BF00232D
:10264000A6EB07088B60B8F1000F9CDD216AA66A33
:1026500043463A462846B047002806DCA38943F0A3
:102660004003A3814FF0FF308EE70744A8EB00083A
:10267000E9E700BF0100402038B50B6905460C466C
:1026800013B90025284638BD18B183690BB900F08D
:1026900087F8144B9C421BD16C68B4F90C30002BAA
:1026A000EFD0626ED00704D4990502D4A06D00F07B
:1026B00015F928462146FFF759FF636EDA070546EC
:1026C000E0D4A3899B05DDD4A06D00F008F9D9E71B
:1026D000054B9C4201D1AC68DFE7044B9C4208BF2C
:1026E000EC68DAE7EC4700080C480008CC47000823
:1026F000002310B50446C0E90033C0E90433836009
:1027000081814366C2818361194608225C30FFF7EC
:10271000CFFD054B6362054BA362054BE362054B9E
:102720002462236310BD00BF6D3100088F310008A3
:10273000C7310008EB310008014900F0AFB800BF15
:102740007926000870B568224D1E55430E4605F1E6
:10275000740100F097F9044640B10021C0E9001669
:102760000C30A06005F16802FFF7A2FD204670BDA5
:10277000014800F0B3B800BF91000020014800F00C
:10278000AEB800BF91000020014800F0A7B800BF1C
:1027900092000020014800F0A2B800BF9200002083
:1027A00010B50446FFF7F0FFA3691BB1BDE8104068
:1027B000FFF7F0BFC4E912332365134B134A1B68BC
:1027C000A262A34204BF0123A361204600F020F8C7
:1027D0006060204600F01CF8A060204600F018F869
:1027E0000022E06004216068FFF782FFA0680122F8
:1027F0000921FFF77DFFE06802221221FFF778FF31
:102800000123A361D2E700BFC847000839270008A9
:10281000F8B50746FFF7ACFF1E4B1E68B36913B946
:102820003046FFF7BDFF4836D6E90134013B03D5FA
:1028300033680BB33668F7E7B4F90C50D5B9164BCB
:10284000E36004F15800656600F047F8FFF796FF73
:10285000C4E90155C4E904552560A561082229464B
:1028600004F15C00FFF724FDC4E90D55C4E91255DD
:102870002046F8BD6834D9E704213846FFF762FFE7
:10288000044630600028D5D1FFF778FF0C233B6069
:10289000EEE700BFC84700080100FFFF2DE9F8433D
:1028A0000646884600F148040027D4E90195B9F1AD
:1028B000010905D52468002CF7D13846BDE8F88316
:1028C000AB89012B07D9B5F90E30013303D0294666
:1028D0003046C04707436835E9E77047704770479F
:1028E00070B50E46B1F90E10002996B014461D467B
:1028F00008DAB6F90C3000222A601A0610D44FF418
:1029000080630EE06A4600F097FC0028F1DB019A34
:1029100002F47042A2F500535A425A412A60EEE78F
:1029200040230020236016B070BD00008B8973B572
:102930009D0706460C4607D504F147032360236133
:102940000123636102B070BD01AB6A46FFF7C8FFA7
:1029500000990546304600F095F848B9B4F90C30B6
:102960009A05EFD423F0030343F00203A381E3E7C6
:102970000D4BB362A389206043F08003A381009BC9
:102980006361019B20615BB1B4F90E10304600F029
:1029900065FC28B1A38923F0030343F00103A3815D
:1029A000A0890543A581CDE73927000837B500295F
:1029B00044D051F8043C0190002BA1F10404B8BFAD
:1029C000E41800F095FC1E4A0198136833B963605F
:1029D000146003B0BDE8304000F090BCA34208D9B9
:1029E000256861198B4201BF19685B68491921602C
:1029F000EDE71A465B680BB1A342FAD91168551886
:102A0000A5420BD1246821445418A3421160E0D19F
:102A10001C685B68536021441160DAE702D90C231B
:102A20000360D6E7256861198B4204BF19685B68AB
:102A3000636004BF491921605460CAE703B030BD28
:102A40009400002070B50E4E0C463168054611B951
:102A500000F07CFB30602146284600F077FB431CE9
:102A60000AD0C41C24F00304A04207D0211A28462F
:102A700000F06CFB013001D14FF0FF34204670BDF7
:102A8000980000202DE9F041CD1C25F00305083504
:102A90000C2D38BF0C25002D074601DBA94205D9B6
:102AA0000C233B6000263046BDE8F0812E4E00F03E
:102AB0001FFC33681C4634BB29463846FFF7C2FF6B
:102AC000431C04464DD134682646002E40D123686D
:102AD0003146384604EB030800F038FB80453AD114
:102AE000216803356D1A25F0030508350C2D38BF14
:102AF0000C2529463846FFF7A5FF01302BD0236867
:102B00002B4423600EE02268521B1ED40B2A16D9D8
:102B10006119A342256018BF5960636808BF31601E
:102B200062514B60384604F10B0600F0E7FB26F0DB
:102B30000706231DF21AB6D09B1BA350B3E76268A9
:102B4000A3420CBF32605A60ECE723466468B2E7E8
:102B500034467668B9E70C233B60384600F0CEFB7C
:102B6000A1E72560DEE700BF940000202DE9F047D3
:102B70008E689E4282460C4690461F4638D88A8907
:102B800012F4906F32D025680969A5EB01096569D7
:102B900005EB450505EBD57501334B446D109D42A2
:102BA00038BF1D46530531D52946FFF76BFF064652
:102BB00050B90C23CAF80030A38943F04003A38125
:102BC0004FF0FF30BDE8F08721694A4600F068FB0E
:102BD000A38923F4906343F08003A3812661656198
:102BE0004E44A5EB09052660A5603E46BE4200D9CD
:102BF0003E4620683246414600F060FBA3689B1BBE
:102C0000A3602368334423600020DBE72A4600F0FA
:102C10007BFB06460028E1D121695046FFF7C6FE3E
:102C2000C7E700002DE9F04F98468B891B069DB041
:102C300007460D4614460ED50B6963B94021FFF7D0
:102C400021FF2860286120B90C233B604FF0FF3042
:102C5000D1E040236B610023099320238DF82930B4
:102C6000CDF80C803023DFF8A8818DF82A304FF0A2
:102C7000010923469A4613F8012B0AB1252AF9D1F6
:102C8000BAEB040B0BD05B46224629463846FFF7C9
:102C90006DFF013000F0AA80099A5A4409929AF80F
:102CA0000030002B00F0A28000234FF0FF32CDE96E
:102CB00005230AF1010A049307938DF853301A9300
:102CC0005446052214F8011B5148FDF789FA049A6D
:102CD000D8B9D00644BF20238DF85330110744BF24
:102CE0002B238DF853309AF800302A2B15D0079AF1
:102CF000544600204FF00A0C214611F8013B303BAE
:102D0000092B4ED9B0B1079214E0A0EB080309FAE1
:102D100003F313430493A246D2E7039B191D1B68D8
:102D20000391002BBBBF5B4242F002020793079363
:102D3000B8BF049223782E2B0CD163782A2B35D17F
:102D4000039B1A1D1B680392002BB8BF4FF0FF3383
:102D500002340593DFF8C8A0217803225046FDF71E
:102D60003FFA40B14023A0EB0A0003FA00F0049BB5
:102D700003430134049314F8011B26488DF82810EE
:102D80000622FDF72DFA002838D0234B1BBB039BEE
:102D9000073323F0070308330393099B3344099354
:102DA00067E70CFB02320C460120A5E70023013443
:102DB000059319464FF00A0C204610F8012B303AC3
:102DC000092A03D9002BC5D00591C3E70CFB0121CB
:102DD00004460123F0E703AB00932A460F4B04A9F6
:102DE0003846AFF30080421C0646D6D1AB895B065D
:102DF0003FF52CAF09981DB0BDE8F08F03AB0093F1
:102E00002A46064B04A9384600F07AF8EBE700BFE3
:102E10002C48000836480008000000006D2B000810
:102E2000324800082DE9F047164699468A680B6932
:102E3000DDF820809342B8BF1346336091F84320F9
:102E400007460C460AB1013333602368990642BF36
:102E5000336802333360256815F0060506D104F1A6
:102E6000190AE36832689B1AAB4226DC94F84320C7
:102E7000131E226818BF012392062BD404F14302CB
:102E800049463846C04701301ED02368E56832689D
:102E900003F00603042B08BFAD1AA36822690CBF18
:102EA00025EAE57500259342C4BF9B1AED1800265C
:102EB0001A34B5421AD1002008E00123524649468F
:102EC0003846C047013003D14FF0FF30BDE8F087EE
:102ED0000135C6E7E1185A1C302081F8430022442E
:102EE00094F8451082F843100233C7E701232246C5
:102EF00049463846C0470130E6D00136D9E70000E0
:102F00002DE9FF470F7E0C9D782F914680460C4699
:102F10009A4601F1430207D8622F0AD8002F00F029
:102F2000D880582F00F0A38004F1420584F8427045
:102F30003AE0A7F16303152BF6D801A151F823F06D
:102F4000992F0008AD2F0008292F0008292F00080D
:102F5000292F0008292F0008AD2F0008292F00086D
:102F6000292F0008292F0008292F0008B930000850
:102F7000DD2F00089B300008292F0008292F0008AA
:102F8000DB300008292F0008DD2F0008292F00085A
:102F9000292F0008A33000082B681A1D1B682A601F
:102FA00004F1420584F842300123A3E02068296837
:102FB000060601F104030AD50E682B60002E03DA21
:102FC0002D23764284F843305E480A2319E00E68C8
:102FD0002B6010F0400F18BF36B2EFE72B68206867
:102FE000191D2960010601D51E6802E04606FBD5C1
:102FF0001E8854486F2F0CBF08230A23002184F831
:1030000043106568A560002DA2BF216821F004016E
:1030100021600EB9002D4DD01546B6FBF3F103FB30
:103020001167C75D05F8017D3746BB420E46F4D9EE
:10303000082B0BD12368DE0708D523696168994204
:10304000DEBF302305F8013C05F1FF35521B22613C
:10305000CDF800A04B4603AA21464046FFF7E2FE0A
:1030600001304CD14FF0FF3004B0BDE8F087354857
:1030700081F845702968236851F8046B29601D06A2
:1030800014D5DF0744BF43F0200323601EB9236833
:1030900023F0200323601023B0E7236843F02003CC
:1030A00023607823284884F84530E3E7590648BF71
:1030B000B6B2E6E71546BBE72B6826686169181DBE
:1030C000286035061B6801D5196002E07006FBD543
:1030D0001980002323611546BAE72B681A1D2A6060
:1030E0001D68626800212846FDF77AF808B1401B88
:1030F000606063682361002384F84330A8E7236994
:103100002A4649464046D0470130ABD023689B074A
:1031100013D4E068039B9842B8BF1846A4E7012384
:10312000324649464046D04701309BD00135E368DE
:1031300003995B1AAB42F2DCEBE7002504F11906B8
:10314000F5E700BF3D4800084E48000838B5064D79
:103150000023044608462B6001F000FB431C02D10B
:103160002B6803B1236038BD9C00002010B50C46CD
:10317000B1F90E1000F0F8F80028ABBF636DA38919
:103180001B1823F48053ACBF6365A38110BD2DE9E8
:10319000F0411F468B89DB0505460C46164605D5D2
:1031A000B1F90E100223002200F068F8A389B4F9E7
:1031B0000E1023F48053A38132463B462846BDE8D7
:1031C000F04100F017B810B50C46B1F90E1000F040
:1031D00055F8431CA38915BF606523F4805343F45D
:1031E0008053A38118BFA38110BDB1F90E1000F068
:1031F00013B8000038B5074D0446084611460022B2
:103200002A601A46FDF7EFFE431C02D12B6803B17A
:10321000236038BD9C00002038B5064D00230446CD
:1032200008462B6001F072FA431C02D12B6803B1EF
:10323000236038BD9C00002038B5074D00230446AC
:10324000084611462B6001F069FA431C02D12B6835
:1032500003B1236038BD00BF9C00002038B5064D87
:103260000023044608462B6001F060FA431C02D19B
:103270002B6803B1236038BD9C00002038B5074D92
:1032800004460846114600222A601A4601F056FA02
:10329000431C02D12B6803B1236038BD9C00002081
:1032A0000A44914200F1FF3300D1704710B511F884
:1032B000014B03F8014F9142F9D110BD884210B57E
:1032C00001EB020402D98442234607D8431EA142DF
:1032D00008D011F8012B03F8012FF8E7024401464A
:1032E0008A4200D110BD13F8014D02F8014DF7E7F5
:1032F0000148FFF7F3BA00BF900000200148FFF734
:10330000EEBA00BF900000202DE9F041804614463F
:103310000E4621B9BDE8F0411146FFF7B3BB2AB90B
:10332000FFF744FB25462846BDE8F08100F02EF863
:103330008442074602D8B4EB500F12D821464046CB
:10334000FFF7A0FB05460028EDD0BC4222463146DF
:1033500028BF3A46FFF7A4FF31464046FFF726FB59
:10336000E1E73546DFE7000038B5074D044608467B
:10337000114600222A601A4601F0E8F9431C02D1E6
:103380002B6803B1236038BD9C00002051F8043C39
:10339000181F002BBCBF0B58C0187047000000005E
:1033A00051EC100B204A21F00043934227DD00B579
:1033B0001E4A934285B009DD10EE102A0B46FCF739
:1033C00063FF41EC100B05B05DF804FB684600F0AC
:1033D0002FF800F0030001289DED021B9DED000B6E
:1033E00012D0022817D090B100F04AFA53EC102BFB
:1033F00003F1004300EE903A05B05DF804FB9FED49
:10340000081B002000F0A4BF00F03AFADBE701201F
:1034100000F09EFFD7E7012000F09AFFE6E700BF2B
:103420000000000000000000FB21E93FFFFFEF7FEC
:103430002DE9F04F53EC102B2DED048B904923F028
:1034400000458D428BB0044640F38C808D498D42FF
:103450001F462BDC002F194610EE100A7EA3D3E97D
:10346000002340F3B681FCF70FFF874B9D42804657
:10347000894600F08F807AA3D3E90023FCF704FF8C
:1034800002460B46C4E9002340464946FCF7FCFED1
:1034900073A3D3E90023FCF7F7FEC4E90201012678
:1034A00030460BB0BDEC048BBDE8F08F77498D4200
:1034B00040F3928076498D4261DC2E15A6F21646C5
:1034C00010EE100AA5EB065190468946FDF72EFB3B
:1034D000FDF728F802460B4640464946CDE904234D
:1034E000FCF7D2FE6B4B0022FDF786F8894680463A
:1034F000FDF71CFB0546FDF715F802460B46404656
:103500004946CDE90623FCF7BFFE624B0022FDF7DA
:1035100073F802460B46CDE9082300220023FDF78D
:10352000D3FA002800F05381002D0CBF01230223A1
:10353000594A0192022200922146324604A800F024
:10354000DFFA002F0646ABDA6168226801F100431A
:10355000E168C4E90023A26801F10043C4E9022341
:1035600046429DE7002000210026C4E902013046C2
:1035700084ED000B0BB0BDEC048BBDE8F08F10EEBA
:10358000100A1946FCF780FE0026C4E90201C4E9CE
:10359000000185E734A3D3E90023FCF775FE34A3CB
:1035A000D3E9002380468946FCF76EFE02460B46AF
:1035B000C4E9002340464946FCF766FE2CA3D3E944
:1035C0000023FCF761FE0126C4E9020130460BB07E
:1035D000BDEC048BBDE8F08F00F078FF59EC108B48
:1035E00010EE100A24A3D3E900234946FDF704F89E
:1035F0002A4B0022FCF74AFEFDF798FA0646FCF734
:1036000091FF02460B4643EC182B13A3D3E900238A
:10361000B0EE489AF0EE689AFCF7EEFF02460B46D1
:1036200040464946FCF730FE0DA3D3E9002382460D
:103630008B4651EC180BFCF7DFFF1F2E41EC180BEB
:1036400030DC174B721E53F82230AB422AD00246B0
:103650000B469BE0AFF3008000004054FB21F93F94
:103660003163621A61B4D03D0000601A61B4D03D8C
:103670007370032E8A19A33B83C8C96D305FE43F82
:10368000FB21E93F7BD90240FB21F93FFB21394176
:10369000FFFFEF7F00007041E04800080000E03FBE
:1036A000604800082B150393504653EC182B5946DD
:1036B000FCF7EAFDC1F30A53C3EB1555102D804604
:1036C000894669DD64A3D3E9002351EC190BFCF7AB
:1036D00093FF8046894642464B4650465946FCF782
:1036E000D3FD02460B465046594692469B46FCF790
:1036F000CBFD42464B46FCF7C7FD59A3D3E9002357
:103700008046894651EC190BFCF776FF42464B4642
:10371000FCF7BAFD02460B465046594643EC182BBF
:10372000FCF7B2FD039AC1F30A53D31A312B80463A
:10373000894631DD4DA3D3E9002351EC190BFCF789
:103740005BFF8046894642464B4650465946FCF749
:103750009BFD02460B465046594692469B46FCF757
:1037600093FD42464B46FCF78FFD42A3D3E900236D
:103770008046894651EC190BFCF73EFF42464B460A
:10378000FCF782FD02460B4643EC182B5046594687
:10379000FCF77AFD8046894642464B46C4E90089DB
:1037A00050465946FCF770FD53EC182BFCF76CFDA6
:1037B000002FC4E90201BFF673AE09F10043C4E96A
:1037C000008301F10043C4E90203764268E6032363
:1037D000AEE6FCF75BFD244B9D428046894616D041
:1037E0001BA3D3E90023FCF751FD02460B46C4E9B5
:1037F000002340464946FCF747FD15A3D3E90023C3
:10380000FCF744FD4FF0FF36C4E9020148E612A37D
:10381000D3E90023FCF73AFD11A3D3E90023804646
:103820008946FCF733FD02460B46C4E900234046B7
:103830004946FCF729FD0AA3D3E90023FCF726FD3E
:103840004FF0FF36C4E902012AE600BFAFF3008063
:103850003163621A61B4D03D0000601A61B4D03D9A
:103860007370032E8A19A33BFB21F93F0000002E41
:103870008A19A33BC14920259A837B3900000000A7
:103880002DE9F84F57EC106B27F00049B9F1795F3B
:103890002DED048B5BEC11AB71DA10EE100A39469A
:1038A000FDF744F9002800F0F68032463B463046EA
:1038B0003946FCF7A1FE7CA3D3E9002304460D465C
:1038C000FCF79AFE7AA3D3E90023FCF7DFFC22463B
:1038D0002B46FCF791FE78A3D3E90023FCF7D4FC38
:1038E00022462B46FCF788FE75A3D3E90023FCF79C
:1038F000CDFC22462B46FCF77FFE73A3D3E90023C1
:10390000FCF7C2FC22462B46FCF776FE70A3D3E9F7
:103910000023FCF7BBFC22462B46FCF76DFE41EC76
:10392000180B714B002220462946FCF765FE53EC2C
:10393000182B8046894620462946FCF75DFE5246F4
:103940005B4604460D4630463946FCF755FE0246B6
:103950000B4620462946FCF797FC02460B4640469C
:103960004946FCF791FC02460B4600205F49FCF7F4
:103970008BFCBDEC048B41EC100BBDE8F88F10EE16
:10398000102A10EE100A3B463946FCF735FE46A3D6
:10399000D3E9002304460D46FCF72EFE44A3D3E9E9
:1039A0000023FCF773FC22462B46FCF725FE42A3BE
:1039B000D3E90023FCF768FC22462B46FCF71CFEEB
:1039C0003FA3D3E90023FCF761FC22462B46FCF71A
:1039D00013FE3DA3D3E90023FCF756FC22462B46F9
:1039E000FCF70AFE3AA3D3E90023FCF74FFC2B4671
:1039F0002246FCF701FE3E4B994541EC180B90DD49
:103A00003C4B99453CDC0022A9F5001337490020C6
:103A100090469946FCF738FC41EC190B324B0022DA
:103A200020462946FCF7E8FD42464B46FCF72CFCB5
:103A300053EC182B8046894620462946FCF7DCFDCE
:103A400052465B4604460D4630463946FCF7D4FDE7
:103A500002460B4620462946FCF716FC02460B465A
:103A600040464946FCF710FC02460B4651EC190B48
:103A7000FCF70AFCBDEC048B41EC100BBDE8F88FA1
:103A80009FED157BDFF87090B0EE479AF0EE679AE5
:103A90004FF00008C2E7BDEC048B9FED110BBDE8B1
:103AA000F88F00BFAFF30080D43888BEE9FAA8BD14
:103AB000C4B1B4BD9EEE213EAD529C804F7E923E7D
:103AC0009015CB19A001FA3E7751C1166CC1563F33
:103AD0004C5555555555A53F000000000000E73FE7
:103AE000000000000000F03F0000E03F0000F03F59
:103AF0003233D33F0000E93F0000D23F0000000016
:103B00002DE9F04FADF5197D1C4608930B91BA4B8A
:103B1000A299049053F821100591631E12F1140F1D
:103B20000393C0F24B83B549D31E81FB0301DB171E
:103B3000C3EBA10307930133A3EB8303DB00D3188B
:103B40000693079A039BD41A059AD6181AD40136FD
:103B5000A39F264420AD4FF000084FF0000908E075
:103B600057F82400FCF7DEFC0134B442E5E802011A
:103B700008D0002CF4DA013440464946B442E5E866
:103B80000201F6D1059B002BC0F2C683089BDDF82D
:103B90000C9020AA02EBC30ADA000292059A1A449A
:103BA0000192049A0DF5E07B02EBC308039B002B06
:103BB000C0F2A781049E57460024002577E902231E
:103BC000F6E80201FCF718FD02460B46204629469E
:103BD000FCF75CFB464504460D46EFD1019B09F11D
:103BE00001099945EBE802450AF1080ADED1049A79
:103BF000029B1344059A01929B460BAB03EB820395
:103C00000A930CAB03EB8203083B0993019A98AB30
:103C100003EBC203002A53E9284529DD0DF5E07ABC
:103C20000AEBC2080DF13009754B002220462946E7
:103C3000FCF7E2FCFCF77AFFFCF774FC714B002206
:103C400006460F46FCF7D8FC02460B46204629469E
:103C5000FCF71AFBFCF76AFF78E9022349F8040B2A
:103C600039463046FCF712FBD04504460D46DBD101
:103C7000DDF8189045EC104B484600F0B5FC55ECCB
:103C8000104B00224FF07F5310EE100A2946FCF72C
:103C9000B3FC41EC100B00F023FC5B4B51EC100B20
:103CA0000022FCF7A9FC02460B4620462946FCF7F9
:103CB000EBFA0D460446FCF739FF8046FCF732FC70
:103CC0000B46024629462046FCF7DEFA4B46002BFF
:103CD00006460F4640F39A80019A511E0CAAC9F17C
:103CE000180352F8212042FA03F000FA03F3D31A22
:103CF000C9F117050CAA43FA05F5002D42F8213049
:103D0000804400F38D800022002330463946FCF7C2
:103D1000DBFE002800F05982019B059A03F1FF3A6F
:103D2000524510DC03F180430CAA013B0A9802EBD8
:103D30008303002253F80419834242EA0102F9D1B5
:103D4000002A40F0E180059B0CAA013B52F8233089
:103D5000002B40F0D180099A012352F80419013355
:103D60000029FAD0019AD3180293531C9946019A5C
:103D700008990A449046079A02EB030A0AF1804A1E
:103D8000A39A0AF1FF3A02EB8A0A20AA02EBC808BA
:103D900070AA02EBC30301935AF8040FFCF7C2FBAD
:103DA0000B46039902460029C8E90023474608F15B
:103DB00008081EDB049E0024002501E077E90223A9
:103DC000F6E80201FCF718FC02460B46204629469D
:103DD000FCF75CFA5E4504460D46EFD1019BE3E833
:103DE00002450193029B09F101099945D4DD019334
:103DF0000CE700240025F1E7284A0008ABAAAA2A0C
:103E00000000703E00007041000020406BD1019B1B
:103E10000CAA013B52F82350ED15002D7FF773AF2C
:103E2000019B002B08F1010840F3CD810C9C002C74
:103E300051D1019B012B20D00CAB012253F8044F30
:103E4000002C4BD0531C0CA9C4F1807441F82240C3
:103E50000199994210DD0CAA0CA852F8232000EB1E
:103E6000830300EB81006FF07F4100E01A688A1A3B
:103E700043F8042B8342F9D10124069B002B0EDD6D
:103E8000012B00F06C81022B09D1019B5A1E0CAB57
:103E90000CA953F82230C3F3150341F82230022D48
:103EA0007FF431AF32463B46B7490020FCF7ECF9CE
:103EB00006460F46002C3FF426AF06989FEDAE0B4A
:103EC00000F092FB3046394653EC102BFCF7DCF93E
:103ED00006460F4617E701230022B4E70199013295
:103EE0008A42ABD1C9E7A94B0022FCF70BFE0028A0
:103EF00040F05281054606E7019B01339946029343
:103F000035E70024002569E6069B0395A3F1180216
:103F10000CABCDF81C8053F82A30069273B9019B84
:103F200003F18043023B0CA901EB830353F804190E
:103F30000AF1FF3A183A0029F8D006929FED8E0B4D
:103F4000069800F051FBBAF1000F55EC104BC0F28F
:103F5000D98170AB03EBCA0B0CAA0AF101030693DB
:103F600002EB8306DFF828924FEACA0304930BF1B1
:103F700008074FF0000856F8040DFCF7D3FA224664
:103F80002B46FCF739FB4B4667E9020142462046C7
:103F90002946FCF731FB0CAB9E4204460D46EAD1A4
:103FA00048ABCDE9013ADDF814A0BAF1000F4FF0AB
:103FB00000092CDB72A3D3E90023DFF8D8815F4628
:103FC00000260024002503E0B14510DBF8E80223B9
:103FD000F7E80201FCF710FB02460B462046294693
:103FE000FCF754F90136B24504460D46ECDA019B64
:103FF000029A03EBC9034A45C3E90045ABF1080B3C
:1040000009F1010306D0BAF1000F9946D2DA002473
:104010000025ECE7A29BDDF808A0022B1EDC002B9C
:1040200000F3098113D1049C019D08342C44002025
:10403000002174E90223FCF729F9A542F9D1039B79
:1040400013B101F1004319460B9BC3E90001079B23
:1040500003F007000DF5197DBDE8F08FA29B032B3F
:10406000F5D1BAF1000F00F06981019A049BD318D1
:10407000D3E9004502EBCA0B7BE9026720462946DB
:1040800032463B46FCF702F9A046A94604460D46D7
:1040900022462B4630463946FCF7F6F84B46424658
:1040A000FCF7F4F8019B5B45CBE90201CBE9004545
:1040B000E2D1BAF1010F40F34181019A049B0AF168
:1040C000005A0AF1FF3A13444FEACA01D3E9004506
:1040D00001F1080A029192440DF5947B7AE9026796
:1040E0002046294632463B46FCF7D0F8A046A94672
:1040F00004460D4622462B4630463946FCF7C4F8A6
:1041000042464B46FCF7C2F8D345CAE90201CAE968
:104110000045E3D1029C019B10341C4403F11005BF
:104120000020002174E90223FCF7B0F8A542F9D180
:10413000039B002B40F0BD800B9CC4E90401019857
:10414000D0E90023C4E90023D0E90223C4E9022313
:10415000079B03F007000DF5197DBDE8F08F019B6B
:104160005A1E0CAB0CA953F82230C3F3160341F8C6
:10417000223094E6AFF30080000000000000F03F22
:1041800000000040FB21F93F0000F03F0000E03F4D
:104190000000703EF0490008019B002B08F1010867
:1041A000C8BF02253FF742AE32463B466549002074
:1041B000FCF76AF8022506460F46A4E500216FF0D9
:1041C00017030791BBE4002457E647EC106B069EEB
:1041D00003957042CDF81C8000F006FA55EC104BA8
:1041E000594B10EE100A00222946FCF78BFC0028E0
:1041F00055D0564B019F0022183620462946069678
:10420000FCF7FAF9FCF792FC0646FCF78BF94E4BEB
:104210000022FCF7F1F90B46024629462046FCF73E
:1042200033F8FCF783FC07F1010A0CAB43F82700D5
:1042300043F82A6082E6019D069B002005EBC3043B
:10424000002174E90223FCF721F8A542F9D1039B70
:10425000002B47D10B9BC3E900010B460199024695
:10426000D1E90001FCF710F8BAF1000F0DDD4AADFD
:104270000124F5E802230134FCF708F8A245F8DA36
:10428000039B13B101F1004319460B9BC3E90201E3
:10429000079B03F007000DF5197DBDE8F08F204660
:1042A0002946FCF743FC019B0CAA9A4642F82300DE
:1042B00044E6019E01F1004374680B993268F56889
:1042C000C1E9040304F10043C1E90023B26805F128
:1042D0000043C1E90223079B03F007000DF5197D98
:1042E000BDE8F08F0B9A01F1004353600B46019932
:1042F00010600246D1E90001FBF7C6FFBAF1000FDA
:10430000B5DCBFE7A29B022B0ADC002B11DC7FF49B
:104310009EAE0020002192E6089BDB00029366E43B
:10432000A29B032B7FF493AE48AB002000210193A6
:10433000FEE648AB00200021019388E70020002121
:10434000F6E600BF0000F03F000070410000703E44
:104350002DE9F04F55EC104B85B025F00043B3F13B
:10436000795F8DED001B039007DA10EE100A2946E5
:10437000FCF7DCFB002800F0898022462B46204613
:104380002946FCF739F906460F4632463B46204699
:104390002946FCF731F943A3D3E9002382468B4633
:1043A00030463946FCF728F940A3D3E90023FBF750
:1043B0006BFF32463B46FCF71FF93EA3D3E90023CF
:1043C000FBF764FF32463B46FCF716F93BA3D3E903
:1043D0000023FBF759FF32463B46FCF70DF939A3A2
:1043E000D3E90023FBF752FF039B80468946ABB31A
:1043F000DDE900012A4B0022FCF7FEF842464B465D
:104400008046894650465946FCF7F6F802460B4668
:1044100040464946FBF738FF32463B46FCF7ECF88E
:10442000DDE90023FBF730FF1BA3D3E90023064699
:104430000F4650465946FCF7DFF802460B46304619
:104440003946FBF723FF02460B4620462946FBF779
:104450001BFF41EC100B05B0BDE8F08F02460B4688
:1044600030463946FCF7C8F80BA3D3E90023FBF725
:104470000BFF52465B46FCF7BFF822462B46FBF784
:1044800005FF41EC100B05B0BDE8F08F45EC104B7B
:1044900005B0BDE8F08F00BF495555555555C53F8E
:1044A0000000E03F7CD5CF5A3AD9E53DEB9C2B8A02
:1044B000E6E55A3E7DFEB157E31DC73ED561C11901
:1044C000A0012A3FA6F810111111813F51EC100BE9
:1044D00010EE102A21F0004343EC102B704700BF70
:1044E00051EC100BF8B5C1F30A53A3F2FF35132DAD
:1044F00010EE106A0C4630DC002D1EDB384F2F41C9
:1045000001EA070303432DD033A3D3E90023FBF7CC
:10451000BDFE00220023FCF7FFFA48B1002C04DAAC
:104520004FF4801343FA05F52C4424EA07040026CF
:104530002346324643EC102BF8BD27A3D3E90023D2
:10454000FBF7A4FE00220023FCF7E6FA0028EFD0D8
:10455000002C29DB00263446EAE7332D05DDB5F5CE
:10456000806F19D041EC100BF8BDA3F213434FF04C
:10457000FF37DF400742F5D017A3D3E90023FBF74D
:1045800085FE00220023FCF7C7FA0028D0D0002CBB
:1045900013DB26EA0706CBE710EE102A0B46FBF7E3
:1045A00075FE41EC100BF8BD24F000430D4A1E438C
:1045B000002E18BF14460026BAE7142D08D0012398
:1045C000C5F1340503FA05F5AE1928BFE418E0E794
:1045D0000134DEE7AFF300809C7500883CE4377E51
:1045E000FFFF0F000000F0BF38B553EC102BC3F3F2
:1045F0000A5104469C4689BB10EE101A23F0004C69
:104600005CEA010129D0194600223D4B3D4D10EED8
:10461000100AFBF7F1FFAC4202460B4616DB8C4654
:10462000C1F30A513639214440F2FE70814221DC47
:10463000002947DC11F1350F34DA4CF250318C424D
:1046400018DC002B26A1D1E9000144DB24A3D3E927
:104650000023FBF7D1FF41EC100B38BD40F2FF7097
:104660008142E0D110EE100A1946FBF70FFE41EC33
:10467000100B38BD002B1CA1D1E9000107DB1AA3E8
:10468000D3E90023FBF7B8FF41EC100B38BD18A1AC
:10469000D1E9000114A3D3E90023FBF7ADFF41ECFE
:1046A000100BF3E72CF0FF4C2CF4E00C36314CEA05
:1046B0000153104619460022134BFBF79DFF41ECB6
:1046C000100B38BD2CF0FF4C2CF4E00C4CEA0153DD
:1046D00043EC102B38BD08A1D1E90001B6E700BFBB
:1046E00059F3F8C21F6EA5019C7500883CE4377E23
:1046F0009C7500883CE437FE59F3F8C21F6EA58113
:1047000000005043B03CFFFF0000903C024B582299
:104710001A604FF0FF3070479C000020024B582277
:104720001A604FF0FF3070479C000020024B582267
:104730001A600020704700BF9C000020024B5822E6
:104740001A604FF0FF3070479C000020024B582247
:104750001A604FF0FF3070479C000020044A054962
:104760001368002B08BF0B461844106018467047AA
:10477000A0000020A8000020F8B500BFF8BC08BCCD
:104780009E467047F8B500BFF8BC08BC9E4670470F
:10479000636F6E66696775726163696F6E20636FC0
:1047A0007272656374610D00636F756E742D3E25C2
:1047B0006C750D0A00000000000000000000000001
:1047C0000102030406070809100000200000000091
:1047D00000000000000000000000000000000000D9
:1047E00000000000000000000000000000000000C9
:1047F00000000000000000000000000000000000B9
:1048000000000000000000000000000000000000A8
:104810000000000000000000000000000000000098
:10482000000000000000000000000000232D302BDD
:104830002000686C4C0065666745464700303132A1
:1048400033343536373839414243444546003031F8
:104850003233343536373839616263646566000057
:10486000FB21F93FFB2109407CD91240FB21194073
:104870007A6A1F407CD92240BBFD2540FB2129409C
:104880003A462C407A6A2F405C4731407CD932400E
:104890009C6B3440BBFD3540DB8F3740FB213940FA
:1048A0001BB43A403A463C405AD83D407A6A3F40B1
:1048B0004C7E40405C4741406C1042407CD94240B5
:1048C0008CA243409C6B4440AC344540BBFD45400A
:1048D000CBC64640DB8F4740EB584840FB21494060
:1048E00083F9A200444E6E00FC291500D157270021
:1048F000DD34F50062DBC0003C9995004190430037
:104900006351FE00BBDEAB00B761C5003A6E240008
:10491000D24D42004906E00009EA2E001C92D10067
:10492000EB1DFE0029B11C00E83EA700F535820012
:1049300044BB2E009CE98400B4267000417E5F00D9
:10494000D6913900538339009CF439008B5F840081
:1049500028F9BD00F81F3B00DEFF97000F98050007
:10496000112FEF000A5A8B006D1F6D00CF7E3600AD
:1049700009CB2700464FB7009E663F002DEA5F0037
:10498000BA277500E5EBC7003D7BF100F73907005A
:1049900092528A00FB6BEA001FB15F00085D8D0038
:1049A000300356007BFC4600F0AB6B0020BCCF0010
:1049B00036F49A00E3A91D005E619100081BE60031
:1049C00085996500A0145F008D40680080D8FF00C5
:1049D00027734D0006063100CA561500C9A873009A
:1049E0007BE260006B8CC00000000040FB21F93FBF
:1049F000000000002D44743E000000809846F83C02
:104A00000000006051CC783B00000080831BF0392F
:104A10000000004020257A38000000802282E33622
:104A2000000000001DF369350200000003000000D3
:084A3000040000000600000074
:084A380014C2FF7F0100000021
:044A4000B5010008B4
:044A440091010008D4
:104A480010000000010000000024F4001000002005
:104A580000000000EC4700080C480008CC4700089C
:104A6800000000000000000000000000000000003E
:104A7800000000000000000000000000000000002E
:104A8800000000000000000000000000000000001E
:104A9800000000000000000000000000000000000E
:104AA80000000000000000000000000000000000FE
:0400000508002215B8
:00000001FF
