:020000040800F2
:100000000050002075170008690D00086B0D0008EE
:100010006D0D00086F0D0008710D00080000000054
:10002000000000000000000000000000730D000848
:10003000750D000800000000770D0008790D00081C
:10004000BD170008BD170008BD170008BD17000840
:10005000BD170008BD170008BD170008BD17000830
:10006000BD170008BD170008BD170008BD17000820
:10007000BD170008BD170008BD170008BD17000810
:10008000BD170008BD170008BD170008BD17000800
:10009000BD170008BD170008BD170008BD170008F0
:1000A000BD170008BD170008BD170008BD170008E0
:1000B000BD170008BD170008BD170008BD170008D0
:1000C000BD170008BD170008BD170008BD170008C0
:1000D000BD170008BD170008BD170008BD170008B0
:1000E000BD170008BD170008BD170008000000007C
:1000F0000000000000000000000000000000000000
:0C01000000000000000000005FF808F1A3
:1001100010B5054C237833B9044B13B10448AFF341
:1001200000800123237010BD70000020000000003B
:10013000A03C000808B5034B1BB103490348AFF3CB
:10014000008008BD0000000074000020A03C0008F2
:10015000034613F8012B002AFBD1181A0138704707
:1001600081F0004102E000BF83F0004330B54FEA68
:1001700041044FEA430594EA050F08BF90EA020FD5
:100180001FBF54EA000C55EA020C7FEA645C7FEA68
:10019000655C00F0E2804FEA5454D4EB5555B8BF8B
:1001A0006D420CDD2C4480EA020281EA030382EAFC
:1001B000000083EA010180EA020281EA0303362D8E
:1001C00088BF30BD11F0004F4FEA01314FF4801C61
:1001D0004CEA113102D0404261EB410113F0004F73
:1001E0004FEA03334CEA133302D0524263EB43032A
:1001F00094EA050F00F0A780A4F10104D5F1200EC8
:100200000DDB02FA0EFC22FA05F2801841F1000122
:1002100003FA0EF2801843FA05F359410EE0A5F1F6
:1002200020050EF1200E012A03FA0EFC28BF4CF027
:10023000020C43FA05F3C01851EBE37101F00045DD
:1002400007D54FF0000EDCF1000C7EEB00006EEBEA
:100250000101B1F5801F1BD3B1F5001F0CD3490874
:100260005FEA30004FEA3C0C04F101044FEA4452CB
:1002700012F5800F80F09A80BCF1004F08BF5FEA52
:10028000500C50F1000041EB045141EA050130BD32
:100290005FEA4C0C404141EB0101013C28BFB1F544
:1002A000801FE9D291F0000F04BF01460020B1FA8F
:1002B00081F308BF2033A3F10B03B3F120020CDA62
:1002C0000C3208DD02F1140CC2F10C0201FA0CF040
:1002D00021FA02F10CE002F11402D8BFC2F1200CA5
:1002E00001FA02F120FA0CFCDCBF41EA0C0190405B
:1002F000E41AA2BF01EB0451294330BD6FEA0404A4
:100300001F3C1CDA0C340EDC04F11404C4F120028E
:1003100020FA04F001FA02F340EA030021FA04F3A0
:1003200045EA030130BDC4F10C04C4F1200220FAF7
:1003300002F001FA04F340EA0300294630BD21FA35
:1003400004F0294630BD94F0000F83F4801306BFFB
:1003500081F480110134013D4EE77FEA645C18BFEF
:100360007FEA655C29D094EA050F08BF90EA020F86
:1003700005D054EA000C04BF1946104630BD91EA7E
:10038000030F1EBF0021002030BD5FEA545C05D181
:100390004000494128BF41F0004130BD14F58004C0
:1003A0003CBF01F5801130BD01F0004545F0FE4134
:1003B00041F470014FF0000030BD7FEA645C1ABF69
:1003C000194610467FEA655C1CBF0B46024650EAA0
:1003D000013406BF52EA033591EA030F41F40021CC
:1003E00030BD00BF90F0000F04BF0021704730B552
:1003F0004FF4806404F132044FF000054FF0000127
:1004000050E700BF90F0000F04BF0021704730B5E7
:100410004FF4806404F1320410F0004548BF4042BC
:100420004FF000013EE700BF42004FEAE2014FEA11
:1004300031014FEA02701FBF12F07F4393F07F4FEC
:1004400081F06051704732F07F4208BF704793F0EF
:100450007F4F04BF41F40021704730B54FF4607402
:1004600001F0004521F000411CE700BF50EA010205
:1004700008BF704730B54FF000050AE050EA0102AE
:1004800008BF704730B511F0004502D5404261EB1E
:1004900041014FF4806404F132045FEA915C3FF45F
:1004A000D8AE4FF003025FEADC0C18BF03325FEAFC
:1004B000DC0C18BF033202EBDC02C2F1200300FAAD
:1004C00003FC20FA02F001FA03FE40EA0E0021FAD2
:1004D00002F11444BDE600BF70B54FF0FF0C4CF4C0
:1004E000E06C1CEA11541DBF1CEA135594EA0C0F72
:1004F00095EA0C0F00F0DEF82C4481EA030621EAAD
:100500004C5123EA4C5350EA013518BF52EA0335E7
:1005100041F4801143F4801338D0A0FB02CE4FF099
:100520000005E1FB02E506F00042E0FB03E54FF0C9
:100530000006E1FB03569CF0000F18BF4EF0010EC1
:10054000A4F1FF04B6F5007F64F5407404D25FEABD
:100550004E0E6D4146EB060642EAC62141EA555170
:100560004FEAC52040EA5E504FEACE2EB4F1FD0CB2
:1005700088BFBCF5E06F1ED8BEF1004F08BF5FEA30
:10058000500E50F1000041EB045170BD06F00046E2
:1005900046EA010140EA020081EA0301B4EB5C048F
:1005A000C2BFD4EB0C0541EA045170BD41F4801187
:1005B0004FF0000E013C00F3AB8014F1360FDEBFAC
:1005C000002001F0004170BDC4F10004203C35DA88
:1005D0000C341BDC04F11404C4F1200500FA05F30B
:1005E00020FA04F001FA05F240EA020001F00042AC
:1005F00021F0004110EBD37021FA04F642EB060122
:100600005EEA430E08BF20EAD37070BDC4F10C044B
:10061000C4F1200500FA04F320FA05F001FA04F20F
:1006200040EA020001F0004110EBD37041F10001FB
:100630005EEA430E08BF20EAD37070BDC4F1200506
:1006400000FA05F24EEA020E20FA04F301FA05F26E
:1006500043EA020321FA04F001F0004121FA04F216
:1006600020EA020000EBD3705EEA430E08BF20EAE6
:10067000D37070BD94F0000F0FD101F00046400020
:1006800041EB010111F4801F08BF013CF7D041EAA2
:10069000060195F0000F18BF704703F000465200A6
:1006A00043EB030313F4801F08BF013DF7D043EA77
:1006B0000603704794EA0C0F0CEA135518BF95EA2D
:1006C0000C0F0CD050EA410618BF52EA4306D1D1B4
:1006D00081EA030101F000414FF0000070BD50EAD3
:1006E000410606BF1046194652EA430619D094EA5D
:1006F0000C0F02D150EA013613D195EA0C0F05D147
:1007000052EA03361CBF104619460AD181EA03019A
:1007100001F0004141F0FE4141F470014FF0000052
:1007200070BD41F0FE4141F4780170BD70B54FF0ED
:10073000FF0C4CF4E06C1CEA11541DBF1CEA13556D
:1007400094EA0C0F95EA0C0F00F0A7F8A4EB05044F
:1007500081EA030E52EA03354FEA013100F0888046
:100760004FEA03334FF0805545EA131343EA12630F
:100770004FEA022245EA111545EA10654FEA0026C4
:100780000EF000419D4208BF964244F1FD0404F57D
:10079000407402D25B084FEA3202B61A65EB0305D9
:1007A0005B084FEA32024FF480104FF4002CB6EB96
:1007B000020E75EB030E22BFB61A754640EA0C0016
:1007C0005B084FEA3202B6EB020E75EB030E22BF56
:1007D000B61A754640EA5C005B084FEA3202B6EB97
:1007E000020E75EB030E22BFB61A754640EA9C0056
:1007F0005B084FEA3202B6EB020E75EB030E22BF26
:10080000B61A754640EADC0055EA060E18D04FEAE3
:10081000051545EA16754FEA06164FEAC30343EA83
:1008200052734FEAC2025FEA1C1CC0D111F4801F50
:100830000BD141EA00014FF000004FF0004CB6E749
:1008400011F4801F04BF01430020B4F1FD0C88BFE8
:10085000BCF5E06F3FF6AFAEB5EB030C04BFB6EBF3
:10086000020C5FEA500C50F1000041EB045170BDE6
:100870000EF0004E4EEA113114EB5C04C2BFD4EB13
:100880000C0541EA045170BD41F480114FF0000E97
:10089000013C90E645EA060E8DE60CEA135594EA13
:1008A0000C0F08BF95EA0C0F3FF43BAF94EA0C0F16
:1008B0000AD150EA01347FF434AF95EA0C0F7FF48B
:1008C00025AF104619462CE795EA0C0F06D152EADF
:1008D00003353FF4FDAE1046194622E750EA4106C3
:1008E00018BF52EA43067FF4C5AE50EA41047FF4D4
:1008F0000DAF52EA43057FF4EBAE12E74FF0FF3C39
:1009000006E000BF4FF0010C02E000BF4FF0010C09
:100910004DF804CD4FEA410C7FEA6C5C4FEA430C82
:1009200018BF7FEA6C5C1BD001B050EA410C0CBFD1
:1009300052EA430C91EA030F02BF90EA020F002033
:10094000704710F1000F91EA030F58BF994208BF9A
:1009500090422CBFD8176FEAE37040F00100704757
:100960004FEA410C7FEA6C5C02D150EA013C07D1AE
:100970004FEA430C7FEA6C5CD6D152EA033CD3D0F9
:100980005DF8040B704700BF8446104662468C46F3
:100990001946634600E000BF01B5FFF7B7FF002826
:1009A00048BF10F1000F01BD4DF808EDFFF7F4FF4F
:1009B0000CBF012000205DF808FB00BF4DF808EDDA
:1009C000FFF7EAFF34BF012000205DF808FB00BFFD
:1009D0004DF808EDFFF7E0FF94BF012000205DF81F
:1009E00008FB00BF4DF808EDFFF7CEFF94BF0120D4
:1009F00000205DF808FB00BF4DF808EDFFF7C4FFCD
:100A000034BF012000205DF808FB00BF4FEA41021F
:100A100012F5001215D211D56FF47873B3EB625250
:100A200012D94FEAC12343F0004343EA505311F077
:100A3000004F23FA02F018BF404270474FF0000009
:100A4000704750EA013005D111F0004008BF6FF047
:100A5000004070474FF00000704700BF4FEA41026E
:100A6000B2F1E04324BFB3F5001CDCF1FE5C0DD90C
:100A700001F0004C4FEAC0024CEA5070B2F1004F56
:100A800040EB830008BF20F00100704711F0804F59
:100A900021D113F13872BCBF01F00040704741F41E
:100AA00080114FEA5252C2F11802C2F1200C10FA22
:100AB0000CF320FA02F018BF40F001004FEAC12306
:100AC0004FEAD32303FA0CFC40EA0C0023FA02F3AA
:100AD0004FEA4303CCE77FEA625307D150EA013380
:100AE0001EBF4FF0FE4040F44000704701F0004050
:100AF00040F0FE4040F40000704700BF42000ED2BC
:100B0000B2F1FE4F0BD34FF09E03B3EB126209D448
:100B10004FEA002343F0004323FA02F070474FF0FE
:100B20000000704712F1610F01D1420202D14FF073
:100B3000FF3070474FF00000704700BF4FF0604338
:100B4000D3F8803E13F0010F13D04FF06043D3F879
:100B5000003EC34013F0010F01D1704700BF4FF0BA
:100B6000604353F82030002BF8D04FF0604343F837
:100B7000201070470EB470B597B006461BAA52F805
:100B8000041B019202A800F0D3FE002402AD06E08F
:100B900015F8011B3046FFF7D1FF0134E4B202A87B
:100BA000FFF7D6FA8442F3D317B0BDE8704003B024
:100BB000704770B50C461646002505E014F8011B79
:100BC0000420FFF7BBFF0135B542F7DB304670BDAF
:100BD00072B6FEE700B591B02822002106A800F009
:100BE00013FE0023019302930393049305930122C0
:100BF00006924FF4803307930A9202220D920E93CD
:100C00004FF4E0130F9306A800F046F980B90F23C4
:100C1000019302210291002303934FF48062049216
:100C2000059301A800F078FB20B911B05DF804FB32
:100C3000FFF7CEFFFFF7CCFFD0B500F0DFF8FFF7EE
:100C4000C9FF00F05DF8284800F054FE0024274A50
:100C5000D36883F40053D360322000F0F3F82246C7
:100C600023490120FFF786FF0A342046FFF7BAFB2D
:100C70001BA3D3E90023FFF72FFC06460F460022F3
:100C80001C4BFFF753FD01F03DFE00221A4BFFF70E
:100C900023FC0022184BFFF769FAFFF7DFFEFFF78E
:100CA0002DFF01460220FFF749FF0022134B30467B
:100CB0003946FFF73BFD01F025FE00220E4BFFF702
:100CC0000BFC00220C4BFFF751FAFFF7C7FEFFF7B2
:100CD00015FF01460320FFF731FFB8E7AFF30080AF
:100CE000182D4454FB210940B83C00080010014075
:100CF000D03C000800806640000024400080464050
:100D000030B587B000240294039404940594144BE6
:100D10009A6942F010029A619A6902F010020092F8
:100D2000009A9A6942F020029A619B6903F02003BD
:100D30000193019B0B4D22464FF40051284600F0D1
:100D4000B3FC4FF400530293012303930494022352
:100D5000059302A9284600F095FB07B030BD00BFFF
:100D60000010024000100140FEE7FEE7FEE7FEE74C
:100D7000FEE770477047704708B500F051F808BDAE
:100D800082B00A4B9A6942F001029A619A6902F0B4
:100D900001020092009ADA6942F08052DA61DB695E
:100DA00003F080530193019B02B070470010024092
:100DB00010B504460E4B18784FF47A73B3FBF0F37A
:100DC0000C4A1068B0FBF3F000F0BEFC68B90F2CC1
:100DD00001D901200AE0002221464FF0FF3000F047
:100DE0007BFC054B1C60002000E0012010BD00BF13
:100DF00000000020080000200400002008B5074A79
:100E0000136843F010031360032000F053FC0F201D
:100E1000FFF7CEFFFFF7B4FF002008BD002002401F
:100E2000034A1168034B1B780B441360704700BFE3
:100E30008C00002000000020014B1868704700BFA4
:100E40008C00002038B50446FFF7F6FF0546B4F1E4
:100E5000FF3F02D0044B1B781C44FFF7EDFF401B03
:100E6000A042FAD338BD00BF0000002082B0084B7A
:100E70001B68084AA2FB03235B0A00FB03F30193F0
:100E800000BF019B5A1E0192002BF9D102B070479E
:100E900008000020D34D6210002800F0F18170B5E9
:100EA00082B00446036813F0010F2CD0994B5B68A5
:100EB00003F00C03042B1DD0964B5B6803F00C036E
:100EC000082B12D06368B3F5803F41D0002B55D179
:100ED00003F1804303F504331A6822F480321A6068
:100EE0001A6822F480221A6037E08A4B5B6813F498
:100EF000803FE7D0874B1B6813F4003F03D0636843
:100F0000002B00F0BF81236813F0020F75D0814BD6
:100F10005B6813F00C0F5FD07E4B5B6803F00C0333
:100F2000082B54D02369002B00F08A807A4B0122D1
:100F30001A60FFF781FF0546764B1B6813F0020F1E
:100F400075D1FFF779FF401B0228F5D903209EE1F8
:100F5000704A136843F480331360636843B3FFF748
:100F60006BFF05466B4B1B6813F4003FCBD1FFF7BB
:100F700063FF401B6428F5D9032088E1B3F5A02F57
:100F800009D0644B1A6822F480321A601A6822F47D
:100F900080221A60E1E703F18043A3F53C331A682D
:100FA00042F480221A601A6842F480321A60D4E750
:100FB000FFF742FF0546574B1B6813F4003FA2D0D2
:100FC000FFF73AFF401B6428F5D903205FE1514B3E
:100FD0005B6813F4803FA5D14E4B1B6813F0020FE2
:100FE00003D02369012B40F04F814A4A136823F054
:100FF000F803616943EAC1031360236813F0080F23
:1010000033D0A369002B5CD0434B0122C3F880246A
:10101000FFF712FF05463F4B5B6A13F0020F21D129
:10102000FFF70AFF401B0228F5D903202FE1394AB8
:10103000136823F0F803616943EAC1031360DCE736
:10104000354B00221A60FFF7F7FE0546314B1B684F
:1010500013F0020FD1D0FFF7EFFE401B0228F5D9A5
:10106000032014E10120FFF701FF236813F0040FB0
:1010700000F09680274BDB6913F0805F34D1254B5D
:10108000DA6942F08052DA61DB6903F08053019340
:10109000019B0125214B1B6813F4807F26D0E36858
:1010A000012B3DD0002B53D103F1804303F50433D2
:1010B0001A6A22F001021A621A6A22F004021A6203
:1010C00033E0154B0022C3F88024FFF7B5FE054638
:1010D000104B5B6A13F0020FC7D0FFF7ADFE401B49
:1010E0000228F5D90320D2E00025D3E70B4A136884
:1010F00043F480731360FFF79FFE0646074B1B689F
:1011000013F4807FCBD1FFF797FE801B6428F5D9BD
:101110000320BCE00010024000004242007000408A
:101120005F4A136A43F001031362E36833B3FFF7C6
:1011300083FE06465A4B1B6A13F0020F2FD1FFF7AE
:101140007BFE801B41F288339842F3D903209EE056
:10115000052B09D0524B1A6A22F001021A621A6A50
:1011600022F004021A62E0E74D4B1A6A42F00402D0
:101170001A621A6A42F001021A62D6E7FFF75CFEB1
:101180000646474B1B6A13F0020F08D0FFF754FEC8
:10119000801B41F288339842F3D9032077E0E5B908
:1011A000E369002B72D03E4A526802F00C02082A12
:1011B00056D0022B17D03B4B00221A66FFF73CFE9D
:1011C0000446374B1B6813F0007F47D0FFF734FE0F
:1011D000001B0228F5D9032059E0314AD36923F0D6
:1011E0008053D361DCE72F4B00221A66FFF724FE01
:1011F00005462B4B1B6813F0007F06D0FFF71CFE43
:10120000401B0228F5D9032041E0236AB3F5803F53
:101210001AD023494B6823F47413226A606A02438C
:1012200013434B601F4B01221A66FFF705FE04466D
:101230001B4B1B6813F0007F0ED1FFF7FDFD001B59
:101240000228F5D9032022E0154A536823F400331D
:10125000A1680B435360DCE7002018E0002016E093
:10126000012B16D00E4B5B6803F48031226A914249
:1012700011D103F47013626A93420ED1002006E08C
:1012800001207047012002E0012000E0002002B0B0
:1012900070BD0120FBE70120F9E70120F7E700BF5F
:1012A000001002400000424286B0174B0FCB0DF1F8
:1012B000180C0CE90F0040F20123ADF80430134B79
:1012C0005B6803F00C02082A02D0114806B0704790
:1012D000C3F3834218326A4412F8100C13F4803FAF
:1012E0000DD00A4B5B68C3F3404318336B4413F8CB
:1012F000143C074A02FB00F0B0FBF3F0E6E7054BB5
:1013000003FB00F0E2E700BFE03C000800100240F1
:1013100000127A0000093D00002800F0A08070B59E
:101320000D460446524B1B6803F007038B420BD259
:101330004F4A136823F007030B431360136803F04D
:1013400007038B4240F08D80236813F0020F17D003
:1013500013F0040F04D0474A536843F4E06353602A
:10136000236813F0080F04D0424A536843F46053D3
:101370005360404A536823F0F003A1680B43536065
:10138000236813F0010F31D06368012B20D0022BAA
:1013900025D0384A126812F0020F64D035494A68E5
:1013A00022F0030213434B60FFF746FD0646314B24
:1013B0005B6803F00C036268B3EB820F16D0FFF793
:1013C0003BFD801B41F288339842F0D9032045E071
:1013D000284A126812F4003FE0D101203EE0254A7D
:1013E000126812F0007FD9D1012037E0204B1B6832
:1013F00003F00703AB420AD91D4A136823F0070321
:101400002B431360136803F00703AB422DD123680D
:1014100013F0040F06D0174A536823F4E063E16821
:101420000B435360236813F0080F07D0114A536829
:1014300023F46053216943EAC1035360FFF734FF8B
:101440000C4B5B68C3F303130B4AD35CD8400B4BC4
:1014500018600B4B1868FFF7ABFC002070BD012033
:1014600070470120FAE70120F8E70120F6E700BF06
:101470000020024000100240F43C00080800002058
:101480000400002070B582B00024A446A6E0804D80
:10149000AA4210D007D97F4DAA420CD005F580355D
:1014A000AA4208D013E0A5F58015AA4203D005F59D
:1014B0007025AA4207D18A68002A58D0012A51D043
:1014C0004361082403E0A5F58015AA42F3D0BEF1DC
:1014D000FF0F4ED80646BEF1FF0F4CD84FEA8C02E4
:1014E00033680F25954023EA050304FA02F21343FB
:1014F00033604B6813F0805F6ED0674B9A6942F09F
:1015000001029A619B6903F001030193019B4FEA79
:101510009C02951C614B53F825600CF003039D0061
:101520000F23AB4026EA03065D4B984229D003F512
:101530008063984200F08E8003F58063984200F04B
:101540008B8003F58063984219D004231AE0CC689D
:10155000BDE7CC680434BAE7CC680834B7E7CC6898
:101560000C34B4E703610824B1E70024AFE7042496
:10157000ADE7061DAFE7ACF108029200B0E7032328
:1015800000E00023AB4033430232444D45F82230A3
:101590004B6813F4803F61D0424A136843EA0E035C
:1015A00013604B6813F4003F5ED03E4A536843EA31
:1015B0000E0353604B6813F4801F5BD0394A936865
:1015C00043EA0E0393604B6813F4001F58D0354A6A
:1015D000D36843EA0E03D3600CF1010C0A6832FAB7
:1015E0000CF353D0012303FA0CF302EA030E33EA9F
:1015F0000202F1D14A68122A3FF649AF122A3FF699
:1016000066AF01A555F822F0B71400084F15000881
:10161000591500086B150008CF140008CF140008F6
:10162000CF140008CF140008CF140008CF1400080E
:10163000CF140008CF140008CF140008CF140008FE
:10164000CF140008CF140008CF1400085315000869
:101650005F150008012395E7022393E7114A1368F9
:1016600023EA0E0313609CE70E4A536823EA0E0335
:1016700053609FE70B4A936823EA0E039360A2E747
:10168000084AD36823EA0E03D360A5E702B070BD11
:101690000000221000003110001002400000014044
:1016A00000080140000401400AB1016170470904CB
:1016B00001617047074AD36823F4E0631B041B0CE5
:1016C000000200F4E060034343F0BF6343F40033DF
:1016D000D360704700ED00E000B5194BDB68C3F341
:1016E0000223C3F1070CBCF1040F28BF4FF0040C18
:1016F00003F1040EBEF1060F18D9033B4FF0FF3E75
:101700000EFA0CFC21EA0C0199400EFA03F322EACE
:101710000303194300280BDB0901C9B200F1604043
:1017200000F5614080F800135DF804FB0023E5E755
:1017300000F00F000901C9B2024B1954F4E700BFD1
:1017400000ED00E014ED00E00138B0F1807F0BD235
:101750004FF0E0235861054AF02182F82310002061
:10176000986107221A6170470120704700ED00E080
:10177000704700000C480D490D4A002302E0D45880
:10178000C4500433C4188C42F9D30A4A0A4C0023CB
:1017900001E013600432A242FBD3FFF7E9FF00F03F
:1017A0000FF8FFF749FA7047000000207000002092
:1017B000803F000870000020A4000020FEE7000029
:1017C00070B500260C4D0D4C641BA410A64209D127
:1017D00002F066FA00260A4D0A4C641BA410A642C9
:1017E00005D170BD55F8043B98470136EEE755F832
:1017F000043B98470136F2E7783F0008783F00083D
:10180000783F00087C3F000803460244934200D121
:10181000704703F8011BF9E770B50E46054618B18D
:1018200083690BB900F064FAAB69AC6813B9284658
:1018300000F05EFA2C4B9C4220D16C68636EDB0793
:1018400005D4A389980502D4A06D00F0EFFAA3890E
:1018500019071DD52369DBB1013EA36816F8011FE6
:10186000013BA36039BB002B38DA22460A21284607
:1018700000F068F8013011D00A2511E01B4B9C42A2
:1018800001D1AC68DAE71A4B9C4208BFEC68D5E797
:101890002146284600F0A8F80028DDD04FF0FF359B
:1018A000636EDA0705D4A3899B0502D4A06D00F00E
:1018B000BEFA284670BD002B04DAA2699A4206DC03
:1018C0000A2904D023685A1C22601970C5E72246F1
:1018D000284600F037F80130BFD1DFE70A2523683A
:1018E0005A1C22601D70DBE7283D0008483D0008B7
:1018F000083D0008024B01461868FFF78DBF00BF86
:101900000C00002000B59BB0009104916FF00041E5
:101910000591029105490391694600F027FC0022D8
:10192000009B1A701BB05DF804FB00BF0802FFFFAC
:1019300013460A46014602480068FFF7E3BF00BFAE
:101940000C000020F8B50E461446054618B1836910
:101950000BB900F0CDF9214B9C422BD16C68A369E7
:10196000A360A3891A072FD523696BB32369206865
:10197000F6B2C01A63693746834204DC2146284622
:1019800000F022F930BBA3680130013BA36023685B
:101990005A1C22601E706369834204D0A389DB074E
:1019A00006D50A2E04D12146284600F00DF988B943
:1019B0003846F8BD0A4B9C4201D1AC68CFE7094BD1
:1019C0009C4208BFEC68CAE72146284600F00CF8A4
:1019D0000028CBD04FF0FF37EAE700BF283D0008D2
:1019E000483D0008083D0008324B70B51D680646AA
:1019F0000C4625B1AB6913B9284600F079F92E4B96
:101A00009C420FD16C68A389B4F90C2019072CD41F
:101A1000DD0611D40923336042F040034FF0FF305C
:101A2000A3813EE0254B9C4201D1AC68EBE7244BFF
:101A30009C4208BFEC68E6E7580712D5616B41B1DC
:101A400004F14403994202D0304600F057FA0023D3
:101A50006363A38923F02403A381002363602369C4
:101A60002360A38943F00803A38123694BB9A389A9
:101A700003F42073B3F5007F03D02146304600F015
:101A8000FDF9A089B4F90C2010F001030AD000235D
:101A9000A36063695B42A361236943B910F08000CE
:101AA000BAD170BD810758BF6369A360F4E7002015
:101AB000F7E700BF0C000020283D0008483D000863
:101AC000083D00088A89F8B5054610070C4657D42A
:101AD0004B68002B04DC0B6C002B01DC0020F8BDF4
:101AE000E66A002EFAD0002312F480522F682B6091
:101AF00032D0606DA3895A0705D56368C01A636B3D
:101B00000BB1236CC01A00230246E66A2846216AFC
:101B1000B047431CA38906D129681D292CD8294A1E
:101B2000CA40D60728D5002262602269D904226003
:101B300004D5421C01D12B6803B96065616B2F602D
:101B40000029CBD004F14403994202D0284600F08A
:101B5000D5F900206063C2E7216A01232846B04717
:101B6000411CC7D12B68002BC4D01D2B01D0162BD4
:101B700001D12F60B2E7A38943F04003A381AEE710
:101B80000F69002FAAD0930718BF00230E6808BF63
:101B90004B69F61B0F608B60002E9FDD33463A4683
:101BA0002846216AD4F828C0E047002806DCA3892B
:101BB0004FF0FF3043F04003A38190E70744361A0B
:101BC000EAE700BF0100402038B50B6905460C4626
:101BD00013B90025284638BD18B183690BB900F048
:101BE00087F8144B9C421BD16C68B4F90C30002B65
:101BF000EFD0626ED00704D4990502D4A06D00F036
:101C000015F928462146FFF75DFF636E0546DA07A2
:101C1000E0D4A3899B05DDD4A06D00F008F9D9E7D5
:101C2000054B9C4201D1AC68DFE7044B9C4208BFE6
:101C3000EC68DAE7283D0008483D0008083D000848
:101C4000002310B50446C0E90033C0E904338360C3
:101C500081814366C2818361194608225C30FFF7A7
:101C6000D3FD054B24626362044BA362044BE36221
:101C7000044B236310BD00BFB9260008DB26000813
:101C80001327000837270008014900F0AFB800BF4C
:101C9000C91B0008682270B54D1E55430E4605F15C
:101CA000740100F093F9044640B10021C0E9001628
:101CB0000C30A06005F16802FFF7A6FD204670BD5C
:101CC000014800F0B3B800BF91000020014800F0C7
:101CD000AEB800BF91000020014800F0A7B800BFD7
:101CE00092000020014800F0A2B800BF920000203E
:101CF00010B50446FFF7F0FFA3691BB1BDE8104023
:101D0000FFF7F0BFC4E912332365134B134A1B6876
:101D1000A262A34208BF0123204608BFA36100F0CE
:101D20001FF86060204600F01BF8A060204600F01D
:101D300017F800220421E0606068FFF781FF0122AC
:101D40000921A068FFF77CFF02221221E068FFF75B
:101D500077FF0123A361D1E7043D0008891C000837
:101D6000F8B50746FFF7ACFF1E4B1E68B36913B901
:101D70003046FFF7BDFF4836D6E90134013B03D5B5
:101D800033680BB33668F7E7B4F90C50D5B9164B86
:101D900004F15800E360656600F047F8FFF796FF2E
:101DA00008222946C4E90155C4E904552560A56106
:101DB00004F15C00FFF728FDC4E90D55C4E9125594
:101DC0002046F8BD6834D9E704213846FFF762FFA2
:101DD000044630600028D5D1FFF778FF0C233B6024
:101DE000EEE700BF043D00080100FFFF2DE9F843C6
:101DF00006468846002700F14804D4E90195B9F168
:101E0000010905D52468002CF7D13846BDE8F883D0
:101E1000AB89012B07D9B5F90E30013303D0294620
:101E20003046C04707436835E9E770477047704759
:101E300070B50E46B1F90E10144600291D4696B035
:101E400008DA0022B6F90C302A601A0610D44FF4D2
:101E500080630EE06A4600F095FC0028F1DB019AF1
:101E600002F47042A2F500535A425A412A60EEE74A
:101E700040230020236016B070BD00008B8973B52D
:101E80009D0706460C4607D504F1470323602361EE
:101E90000123636102B070BD6A4601ABFFF7C8FF62
:101EA00000990546304600F091F848B9B4F90C3075
:101EB0009A05EFD423F0030343F00203A381E3E781
:101EC0000D4BB362A389206043F08003A381009B84
:101ED00020616361019B5BB13046B4F90E1000F0E4
:101EE00063FC28B1A38923F0030343F00103A3811A
:101EF000A0890543A581CDE7891C000838B50546B2
:101F0000002940D051F8043C0C1F002BB8BFE41846
:101F100000F0A2FC1C4A136833B9636014602846C1
:101F2000BDE8384000F09EBCA34208D920682118C3
:101F30008B4201BF19685B6809182160EDE71A46FA
:101F40005B680BB1A342FAD911685018A0420BD1BB
:101F500020680144501883421160E0D118685B6822
:101F6000014411605360DAE702D90C232B60D6E7F5
:101F7000206821188B4201BF19685B68091821602D
:101F800063605460CBE738BD9400002070B50E4EFE
:101F90000C463168054611B900F07EFB30602146E1
:101FA000284600F079FB431C0AD0C41C24F003042B
:101FB000A04207D0211A284600F06EFB013001D163
:101FC0004FF0FF34204670BD980000202DE9F0410D
:101FD000CD1C25F0030508350C2D38BF0C25002D30
:101FE000074601DBA94205D90C2300263B60304699
:101FF000BDE8F0812E4E00F02FFC33681C4634BB48
:1020000029463846FFF7C2FF431C04464DD13468C9
:102010002646002E40D123683146384604EB03089B
:1020200000F03AFB80453AD1216803356D1A25F05E
:10203000030508350C2D38BF0C2538462946FFF717
:10204000A5FF01302BD023682B4423600EE02268CB
:10205000521B1ED40B2A16D96119A342256018BF42
:102060005960636808BF316062514B60384604F1C3
:102070000B0600F0F7FB26F00706231DF21AB6D078
:102080009B1BA350B3E76268A3420CBF32605A6047
:10209000ECE723466468B2E734467668B9E70C2378
:1020A00038463B6000F0DEFBA1E72560DEE700BFBD
:1020B000940000202DE9F0478E6882469E420C462F
:1020C00090461F4638D88A8912F4906F32D025681E
:1020D00009690133A5EB010965694B4405EB450529
:1020E00005EBD5756D109D4238BF1D46530531D5A2
:1020F0002946FFF76BFF064650B90C234FF0FF301F
:10210000CAF80030A38943F04003A381BDE8F087FB
:102110004A46216900F078FBA38923F4906343F0D9
:102120008003A38126614E4426603E466561A5EB8F
:102130000905A560BE4200D93E46324641462068A8
:1021400000F070FBA36800209B1BA360236833444E
:102150002360DBE72A4600F08BFB06460028E1D12E
:1021600050462169FFF7CAFEC7E700002DE9F04F8E
:1021700098468B8907461B060D4614469DB00ED522
:102180000B6963B94021FFF721FF2860286120B95E
:102190000C233B604FF0FF30D1E040236B61002304
:1021A000099320238DF8293030234FF00109CDF811
:1021B0000C80DFF8A4818DF82A3023469A4613F864
:1021C000012B0AB1252AF9D1BAEB040B0BD05B46DF
:1021D000224629463846FFF76DFF013000F0AA80FD
:1021E000099A5A4409929AF80030002B00F0A28014
:1021F00000234FF0FF32CDE905230AF1010A0493D1
:1022000007938DF853301A935446052214F8011B96
:10221000514800F0EBFA049AD8B9D00644BF202305
:102220008DF85330110744BF2B238DF853309AF8A3
:1022300000302A2B15D0544600204FF00A0C079A84
:10224000214611F8013B303B092B4ED9B0B1079222
:1022500014E0A0EB080309FA03F31343A246049326
:10226000D2E7039B191D1B680391002BBBBF5B4288
:1022700042F0020207930793B8BF049223782E2BF3
:102280000CD163782A2B35D1039B02341A1D1B68AD
:102290000392002BB8BF4FF0FF330593DFF8BCA0CB
:1022A00003225046217800F0A1FA40B14023A0EB70
:1022B0000A0003FA00F0049B01340343049314F86A
:1022C000011B062226488DF8281000F08FFA0028FE
:1022D00038D0244B1BBB039B073323F00703083381
:1022E0000393099B3344099367E70C4601200CFBD9
:1022F0000232A5E700234FF00A0C1946013405937A
:10230000204610F8012B303A092A03D9002BC5D0FA
:102310000591C3E7044601230CFB0121F0E703AB61
:1023200000932A463846104B04A9AFF30080421CA4
:102330000646D6D1AB895B063FF52CAF09981DB098
:10234000BDE8F08F03AB00932A463846064B04A93C
:1023500000F07CF8EBE700BF683D00086E3D000828
:10236000723D000800000000B52000082DE9F0478C
:10237000164699468A680B6907469342B8BF1346CA
:10238000336091F843200C46DDF820800AB1013318
:1023900033602368990642BF33680233336025688F
:1023A00015F0060506D104F1190AE36832689B1A94
:1023B000AB4228DC94F84320131E226818BF012387
:1023C00092062DD44946384604F14302C0470130F5
:1023D00020D02368E56803F00603042B18BF00250E
:1023E00032684FF00006A36808BFAD1A226908BF23
:1023F00025EAE5759342C4BF9B1AED181A34B5421D
:102400001AD1002008E00123524649463846C04709
:10241000013003D14FF0FF30BDE8F0870135C4E74C
:102420003020E11881F843005A1C94F845102244EA
:10243000023382F84310C5E7012322464946384655
:10244000C0470130E6D00136D9E700002DE9FF474B
:102450000F7E9146782F80460C469A460C9D01F1DE
:10246000430207D8622F0AD8002F00F0D980582FD6
:1024700000F0A48004F1420584F842703AE0A7F12C
:102480006303152BF6D801A151F823F0E5240008C9
:10249000F924000875240008752400087524000834
:1024A00075240008F9240008752400087524000824
:1024B000752400087524000807260008292500084F
:1024C000E92500087524000875240008292600085D
:1024D00075240008292500087524000875240008C3
:1024E000F12500082B681A1D1B682A6004F14205BB
:1024F00084F842300123A4E020682968060601F12F
:1025000004030AD50E682B60002E03DA2D237642D1
:1025100084F843300A235E4819E00E6810F0400F3B
:102520002B6018BF36B2EFE72B682068191D2960B1
:10253000010601D51E6802E04606FBD51E886F2FF6
:102540000CBF08230A235248002184F84310656811
:10255000002DA8BF2168A560A4BF21F0040121605F
:102560000EB9002D4DD01546B6FBF3F103FB1167F4
:10257000C75D05F8017D3746BB420E46F4D9082BEE
:102580000BD12368DE0708D5236961689942DEBF55
:10259000302305F8013C05F1FF35521B22614B4603
:1025A00021464046CDF800A003AAFFF7DFFE013028
:1025B0004CD14FF0FF3004B0BDE8F087344881F8CB
:1025C00045702968236851F8046B29601D0614D5ED
:1025D000DF0744BF43F0200323601EB9236823F0C4
:1025E000200323601023AFE7236843F02003236018
:1025F0007823284884F84530E3E7590648BFB6B247
:10260000E6E71546BBE72B682668181D6169286058
:1026100035061B6801D5196002E07006FBD51980EC
:10262000002315462361BAE72B6800211A1D2A6092
:102630001D686268284600F0D9F808B1401B606048
:1026400063682361002384F84330A8E72A4649469B
:1026500040462369D0470130ABD023689B0713D491
:10266000E068039B9842B8BF1846A4E701233246AE
:1026700049464046D04701309BD00135E368039975
:102680005B1AAB42F2DCEBE7002504F11906F5E733
:10269000793D00088A3D000838B50023054D044601
:1026A00008462B6001F0EEFA431C02D12B6803B1FF
:1026B000236038BD9C00002010B50C46B1F90E1007
:1026C00000F006F90028ABBF636DA3891B1823F443
:1026D0008053ACBF6365A38110BD2DE9F0411F4657
:1026E0008B890546DB050C46164605D502230022DC
:1026F000B1F90E1000F068F8A389324623F4805334
:10270000A38128463B46B4F90E10BDE8F04100F025
:1027100017B810B50C46B1F90E1000F055F8431C6F
:10272000A38915BF606523F4805343F48053A381CC
:1027300018BFA38110BDB1F90E1000F013B800004E
:1027400038B50446084611460022054D2A601A464F
:10275000FEF72FFA431C02D12B6803B1236038BD6A
:102760009C00002038B50023054D044608462B6028
:1027700001F060FA431C02D12B6803B1236038BD1D
:102780009C00002038B50023064D0446084611463B
:102790002B6001F057FA431C02D12B6803B1236070
:1027A00038BD00BF9C00002038B50023054D04460D
:1027B00008462B6001F04EFA431C02D12B6803B18E
:1027C000236038BD9C00002038B5044608461146F9
:1027D0000022054D2A601A4601F044FA431C02D13A
:1027E0002B6803B1236038BD9C000020034610B560
:1027F000C9B202449342184601D1002003E0047894
:1028000001338C42F6D110BD0A44914200F1FF33EE
:1028100000D1704710B511F8014B914203F8014FF8
:10282000F9D110BD884210B501EB020402D98442EF
:10283000234607D8431EA14208D011F8012B03F804
:10284000012FF8E7014602448A4200D110BD13F877
:10285000014D02F8014DF7E70148FFF7E7BA00BF65
:10286000900000200148FFF7E2BA00BF900000206E
:102870002DE9F041804614460E4621B91146BDE8C7
:10288000F041FFF7A3BB2AB9FFF738FB25462846DE
:10289000BDE8F08100F02EF88442074602D8B4EB80
:1028A000500F12D821464046FFF790FB05460028FE
:1028B000EDD0BC422246314628BF3A46FFF7A4FF7E
:1028C00031464046FFF71AFBE1E73546DFE70000F7
:1028D00038B50446084611460022054D2A601A46BE
:1028E00001F0C8F9431C02D12B6803B1236038BD45
:1028F0009C00002051F8043C181F002BBCBF0B5853
:10290000C018704710B5294C21F00043A34286B08F
:1029100020DD274A934209DD02460B46FDF724FCE1
:1029200002460B461046194606B010BD02AA00F03A
:1029300043F800F00300012818D002282AD0F0B193
:10294000DDE90423DDE9020100F062FA024601F14B
:102950000043E7E7002400220023009400F0A8FFD2
:1029600002460B461046194606B010BDDDE90423A9
:10297000DDE9020100F04CFA02460B46D2E70124E1
:10298000DDE90423DDE90201009400F091FF024635
:102990000B46C7E70124DDE90423DDE902010094C9
:1029A00000F086FF024601F10043BBE7FB21E93F4F
:1029B000FFFFEF7F000000002DE9F04FDFF838C285
:1029C00021F000456545064614468FB040F38580EA
:1029D0008A4A0F46954226DC7DA3D3E900230029CD
:1029E00040F3C081FDF7C0FB854B80469D42894680
:1029F00000F08A8078A3D3E90023FDF7B5FB0246F7
:102A00000B464046C4E900234946FDF7ADFB72A3DF
:102A1000D3E90023FDF7A8FB0126C4E902013046F3
:102A20000FB0BDE8F08F774A954240F38D80764A2B
:102A300095425FDC4FEA2558A8F21648A5EB0851ED
:102A40008B46FDF7E3FFFDF7DDFC02460B46304603
:102A50005946CDE90823FDF787FB00226B4BFDF7B4
:102A60003BFD8B468246FDF7D1FF0546FDF7CAFCCC
:102A700002460B4650465946CDE90A23FDF774FB42
:102A80000022624BFDF728FD02460B46CDE90C23E0
:102A900000220023FDF788FF002800F06181002D4F
:102AA0000CBF01230223022559494246019108A87F
:102AB0002146009500F0D4FA002F0646AFDAD4E99B
:102AC000000505F10041C4E90001E168A26801F1D7
:102AD0000043C4E902237642A1E700264FF0000834
:102AE0004FF00009C2E900013046C2E902890FB087
:102AF000BDE8F08F02460B46FDF736FB0026C4E921
:102B00000201C4E900018AE735A3D3E90023FDF7F8
:102B10002BFB35A3D3E9002380468946FDF724FB30
:102B200002460B464046C4E900234946FDF71CFB1C
:102B30002DA3D3E90023FDF717FB0126C4E9020109
:102B400030460FB0BDE8F08F00F074FF28A3D3E942
:102B5000002380468946FDF7BFFC00222D4BFDF780
:102B600005FBFDF753FF0646FDF74CFC18A3D3E920
:102B7000002382468B46CDE904ABFDF7ADFC02464F
:102B80000B4640464946FDF7EFFA13A3D3E900236D
:102B9000CDE9020150465946FDF79EFC1F2E8046A6
:102BA00089463BDC1C4B721E53F82230AB4235D0B9
:102BB00002460B46DDE90201FDF7D6FA02460B4656
:102BC00082468B46C4E90023AEE000BFAFF300802D
:102BD00000004054FB21F93F3163621A61B4D03DDB
:102BE0000000601A61B4D03D7370032E8A19A33BB4
:102BF00083C8C96D305FE43FFB21E93F7BD90240C8
:102C0000FB21F93FFB213941FFFFEF7F00007041BD
:102C10001C3E00080000E03F9C3D00082B15079378
:102C20004246DDE902014B46FDF79EFAC1F30A5325
:102C3000C3EB1555102D8B46824671DD68A3D3E991
:102C40000023DDE90401FDF747FCDDE902AB804626
:102C5000894642464B4650465946FDF785FA02469C
:102C60000B465046594692469B46FDF77DFA424632
:102C70004B46FDF779FA5CA3D3E9002380468946E9
:102C8000DDE90401FDF728FC42464B46FDF76CFAEE
:102C9000804689465046594642464B46CDE902ABEE
:102CA000FDF762FA079AC1F30A53D31A312B8B4608
:102CB000824635DD4EA3D3E90023DDE90401FDF7AB
:102CC0000BFCDDE902AB8046894642464B46504646
:102CD0005946FDF749FA02460B4650465946924678
:102CE0009B46CDE902ABFDF73FFA42464B46FDF766
:102CF0003BFA41A3D3E9002380468946DDE904017C
:102D0000FDF7EAFB42464B46FDF72EFA8046894620
:102D10005046594642464B46FDF726FA8B468246B8
:102D200052465B46C4E90023DDE9020152465B4698
:102D3000FDF71AFA42464B46FDF716FA02460B46D5
:102D4000002FC4E90223BFF66AAE0BF1004301F184
:102D50000041A0606360E1607642C4F800A05EE6D6
:102D60000323A0E6FDF702FA274B80469D428946E1
:102D700016D023A3D3E90023FDF7F8F902460B464A
:102D80004046C4E900234946FDF7EEF91CA3D3E908
:102D90000023FDF7EBF94FF0FF36C4E902013EE6F0
:102DA0000FA3D3E90023FDF7E1F90FA3D3E9002333
:102DB00080468946FDF7DAF902460B464046C4E9EB
:102DC00000234946FDF7D0F907A3D3E90023FDF717
:102DD000CDF94FF0FF36C4E9020120E6AFF30080E1
:102DE0000000601A61B4D03D7370032E8A19A33BB2
:102DF0000000002E8A19A33BC14920259A837B3904
:102E00003163621A61B4D03DFB21F93F000000003C
:102E10002DE9F04F21F00046B6F1795F92469B46CE
:102E20000C46054685B06DDAFDF7F0FD002800F090
:102E3000EB802A46234628462146FDF74DFB76A324
:102E4000D3E9002380468946FDF746FB74A3D3E906
:102E50000023FDF78BF942464B46FDF73DFB72A37D
:102E6000D3E90023FDF780F942464B46FDF734FBDA
:102E70006FA3D3E90023FDF779F942464B46FDF7EE
:102E80002BFB6DA3D3E90023FDF76EF942464B46B9
:102E9000FDF722FB6AA3D3E90023FDF767F9424659
:102EA0004B46FDF719FBCDE900010022404649469B
:102EB000654BFDF711FBDDE9002306460F46404652
:102EC0004946FDF709FBA846A14652465B46044623
:102ED0000D4640464946FDF7FFFA02460B4620469E
:102EE0002946FDF741F902460B4630463946FDF7C3
:102EF0003BF902460B4600205449FDF735F905B071
:102F0000BDE8F08F02460B46FDF7E6FA42A3D3E98F
:102F1000002380468946FDF7DFFA41A3D3E9002369
:102F2000FDF724F942464B46FDF7D6FA3EA3D3E916
:102F30000023FDF719F942464B46FDF7CDFA3CA3B5
:102F4000D3E90023FDF712F942464B46FDF7C4FAD8
:102F500039A3D3E90023FDF707F942464B46FDF7B5
:102F6000BBFA37A3D3E90023FDF700F94B464246ED
:102F7000FDF7B2FA364BCDE900019E4295DD354BA7
:102F800000229E423ADCA6F5001300202F49164687
:102F90001F46FDF7E9F8CDE9020100224046494607
:102FA000294BFDF799FA32463B46FDF7DDF8DDE99E
:102FB000002306460F4640464946FDF78DFAA846CF
:102FC000A14652465B4604460D4640464946FDF73B
:102FD00083FA02460B4620462946FDF7C5F802460D
:102FE0000B4630463946FDF7BFF802460B46DDE991
:102FF0000201FDF7B9F805B0BDE8F08F164B0026C9
:10300000CDE90223154FC8E70020104905B0BDE8FF
:10301000F08F00BFAFF30080D43888BEE9FAA8BDB6
:10302000C4B1B4BD9EEE213EAD529C804F7E923E17
:103030009015CB19A001FA3E7751C1166CC1563FCD
:103040004C5555555555A53F0000E03F0000F03F59
:103050003233D33F0000E93F0000E73F0000D23F9A
:103060002DE9F04FADF5197DB84CA29D089354F8A9
:103070002540013B12F1140F074605940B91039371
:10308000C0F24283B249D31E81FB0301DB17C3EBBD
:10309000A10307930133A3EB8303DB00D31806934B
:1030A000079A039BD61A059A12EB03091BD409F160
:1030B000010900240025DDF88CA2B1440DF180083F
:1030C00008E05AF82600FDF79DF901364E45E8E87C
:1030D000020108D0002EF4DA2046294601364E457A
:1030E000E8E80201F6D1059B002BC0F2BC83089BE7
:1030F00020AA02EBC30ADA000292059AA7F108019E
:103100001A44DDF80C9004910DF5E07B019201EB7F
:10311000C308039B002BC0F2AE8157460024002554
:10312000049E77E90223F6E90201FDF7D5F902468C
:103130000B4620462946FDF719F8464504460D463C
:10314000EFD1019B09F101099945EBE802450AF12C
:10315000080ADED1049BDDF808B00BAA9B44059B4E
:1031600002EB83020A920CAA019302EB8303083B51
:103170000993019A98AB03EBC203002A53E928454F
:1031800029DD0DF5E07A0DF130090AEBC2080022C5
:10319000704B20462946FDF79FF9FDF737FCFDF7F8
:1031A00031F900226C4B06460F46FDF795F90246B1
:1031B0000B4620462946FCF7D7FFFDF727FC78E9A8
:1031C000022349F8040B39463046FCF7CFFFD045BF
:1031D00004460D46DBD1DDF81890204629464A46C4
:1031E00000F0AAFC00224FF07F5304460D46FDF785
:1031F00073F900F025FC0022584BFDF76DF90246EB
:103200000B4620462946FCF7AFFF0D460446FDF766
:10321000FDFB8046FDF7F6F80B46024629462046A0
:10322000FCF7A2FF4B46002B06460F4640F3988062
:10323000019A0CA9013A51F82250C9F1180345FA34
:1032400003F101FA03F3ED1A0CAB43F82250C9F174
:1032500017031D41002D884400F38C8000220023B9
:1032600030463946FDF7A0FB002800F05482019B50
:10327000059A03F1FF3A524510DC002203F1804326
:10328000013B0CA90A9801EB830353F8041983420C
:1032900042EA0102F9D1002A40F0F080059B0CAA15
:1032A000013B52F82330002B40F0E0800123099AC3
:1032B00052F8041901330029FAD0019AD318029365
:1032C000531C9946DDF80480089A9044079A02EB53
:1032D000030A0AF1804AA39A0AF1FF3A02EB8A0A2A
:1032E00020AA02EBC80870AA02EBC30301935AF8A4
:1032F000040FFDF787F8039B4746002B08F10808E9
:1033000048E902011FDB00240025049E083F01E07C
:1033100077E80201F6E90223FDF7DEF802460B46E4
:1033200020462946FCF722FF5E4504460D46EFD1B4
:10333000019B09F10109E3E802450193029B9945CC
:10334000D5DD019315E700240025F1E7683F00086B
:10335000ABAAAA2A0000703E000070410000204085
:103360006BD1019B0CAA013B52F82350ED15002DA7
:103370007FF774AF019B08F10108002B40F3C9816E
:103380000C9C002C51D1019B012B20D001220CABB5
:1033900053F8044F002C4BD0531C0CA9C4F180747B
:1033A00041F822400199994210DD0CAC0CAA52F868
:1033B00023206FF07F4004EB830304EB810100E0E6
:1033C0001A68821A43F8042B8B42F9D10124069B18
:1033D000002B0EDD012B00F08C81022B09D1019B0B
:1033E0000CA95A1E0CAB53F82230C3F3150341F855
:1033F0002230022D7FF432AF32463B4600207A491C
:10340000FCF7B2FE06460F46002C3FF427AF069AA3
:103410000020754900F090FB02460B4630463946C5
:10342000FCF7A2FE06460F4618E701230022B4E788
:10343000019901328A42ABD1C9E700226B4BFDF7FB
:10344000D1FA054600283FF409AF019B08F10108B5
:10345000002BC8BF022593DC32463B460020624960
:10346000FCF782FE022506460F46F7E6019B013374
:103470009946029326E70024002562E6069B039501
:10348000A3F118020CAB53F82A30CDF81C80069239
:1034900073B9019B0CA903F18043023B01EB830349
:1034A00053F804190AF1FF3A183A0029F8D00692A5
:1034B0000020069A4C4900F03FFBBAF1000F044689
:1034C0000D46C0F2D7814FF0000870AB03EBCA0B7A
:1034D0000CAA0AF10103069302EB8306DFF81091B0
:1034E0004FEACA0304930BF1080756F8040DFCF7E2
:1034F00089FF22462B46FCF7EFFF4B4667E90201A6
:10350000424620462946FCF7E7FF0CAB9E420446A4
:103510000D46EAD148ABCDE9013ADDF814A04FF0F1
:103520000009BAF1000F2CDB2DA3D3E900235F467D
:10353000002600240025DFF8BC8003E0B14510DB45
:10354000F8E80223F7E80201FCF7C6FF02460B4643
:1035500020462946FCF70AFE0136B24504460D46D0
:10356000ECDA019B029A03EBC9039145C3E90045DC
:10357000ABF1080B09F1010306D0BAF1000F99462F
:10358000D2DA00240025ECE7A29BDDF808A0022B8C
:1035900032DC002B00F3F28018D1A29B049D1C4664
:1035A000019E08353544184675E902232146FCF78B
:1035B000DDFDAE4203460C46F5D1039A0AB104F193
:1035C0000044184621460B9BC3E90001079B03F00A
:1035D00007000DF5197DBDE8F08F00BFAFF3008047
:1035E00000000040FB21F93F0000F03F0000E03FF9
:1035F0000000703E303F0008A29B032BE6D1BAF1D9
:10360000000F00F04D81019B049A13449B46D3E9BF
:1036100000455BE902672046294632463B46FCF7F7
:10362000A5FDA046A94604460D4622462B46304637
:103630003946FCF799FD4B464246FCF797FDCBE92E
:1036400000016BE90245019B5B45E2D1BAF1010F34
:1036500040F32681049B019A0DF5947B13449A460E
:10366000D3E9004502935AE90267204629463246CB
:103670003B46FCF77BFDA046A94604460D46224684
:103680002B4630463946FCF76FFD42464B46FCF769
:103690006DFDCAE900016AE90245D345E3D1002383
:1036A0001E46029C019A083402F11005184674E97E
:1036B00002233146FCF75AFDA54203460E46F5D1DA
:1036C000039A002A40F0A480184631460B9C019BC7
:1036D000C4E90401D3E90223C4E90223DDE9482354
:1036E000C4E90023079B03F007000DF5197DBDE831
:1036F000F08F019B0CA95A1E0CAB53F82230C3F378
:10370000160341F8223074E600216FF01703079189
:10371000C4E400245BE6069C3046394662420395C9
:10372000CDF81C8000F008FA00225F4B06460F46D9
:10373000FDF758F9002861D000225C4B1834304660
:1037400039460694FCF7C8FEFDF760F90446FCF71D
:1037500059FE0022544BFCF7BFFE0B460246394689
:103760003046FCF701FDFDF751F9019D0CAB05F169
:10377000010A43F8250043F82A4099E6002634461A
:10378000019F069B07EBC305304675E902232146DE
:10379000FCF7ECFCAF4206460C46F5D1039B002B30
:1037A00050D13046214623460B9C3246C4E90001E5
:1037B000DDE94801FCF7D8FCBAF1000F03460E46DC
:1037C00010DD012448AD1846F5E902233146FCF727
:1037D000CDFC0134A24503460E46F4DA039A0AB141
:1037E00006F10046184631460B9BC3E90201079BD0
:1037F00003F007000DF5197DBDE8F08F304639461E
:10380000FDF704F9019B0CAA9A4642F823004FE603
:103810000B9D019C06F100466E6126462068A26859
:1038200064682B6104F10041F468C5E9000104F10A
:103830000043C5E90223079B03F007000DF5197D3E
:10384000BDE8F08F0B9804F1004106603246234634
:103850004160DDE94801FCF787FCBAF1000F03463F
:103860000E46AEDCBCE7A7F108030493089BDB001F
:1038700002936FE4A29B022B06DC002B0DDC7FF48D
:10388000A5AEA29B1C4698E6A29B032B7FF49EAE9E
:10389000002348AA1E46019212E7002634467DE71F
:1038A00000231E460CE700BF000070410000703E80
:1038B0002DE9F04F85B0CDE9022321F00043B3F1AB
:1038C000795F8246019104DAFDF7A0F8002800F044
:1038D0008E80019B524619465046FCF7FDFD04467A
:1038E0000D46019B2246194650462B46FCF7F4FD37
:1038F00043A3D3E9002306460F4620462946FCF79A
:10390000EBFD41A3D3E90023FCF72EFC22462B4616
:10391000FCF7E2FD3EA3D3E90023FCF727FC224697
:103920002B46FCF7D9FD3CA3D3E90023FCF71CFC94
:1039300022462B46FCF7D0FD39A3D3E90023FCF740
:1039400015FC0E9B80468946BBB3DDE902010022CF
:10395000374BFCF7C1FD42464B4680468946304610
:103960003946FCF7B9FD02460B4640464946FCF78E
:10397000FBFB22462B46FCF7AFFDDDE90223FCF7FB
:10398000F3FB29A3D3E9002304460D46304639460C
:10399000FCF7A2FD02460B4620462946FCF7E6FB53
:1039A00002460B4650460199FCF7DEFB82468B46E9
:1039B0005046594605B0BDE8F08F02460B462046FA
:1039C0002946FCF789FD18A3D3E90023FCF7CCFBBB
:1039D00032463B46FCF780FD5246019BFCF7C6FB96
:1039E00082468B465046594605B0BDE8F08FDDF85B
:1039F00004B05046594605B0BDE8F08FAFF30080E3
:103A00007CD5CF5A3AD9E53DEB9C2B8AE6E55A3E68
:103A10007DFEB157E31DC73ED561C119A0012A3F04
:103A2000A6F810111111813F495555555555C53FFF
:103A30000000E03F21F00041704700BF000000009F
:103A4000C1F30A52F8B5A2F2FF35132D0B46844696
:103A50000C46064630DC002D1EDB354F2F4101EAB7
:103A60000702024315D030A3D3E90023FCF77EFB05
:103A700000220023FCF7C0FF48B1002C04DA4FF409
:103A8000801343FA05F52C44002624EA0704234654
:103A9000B44660461946F8BD23A3D3E90023FCF7DA
:103AA00065FB00220023FCF7A7FF0028EFD0002CC5
:103AB00024DB00263446EAE7332D08DDB5F5806FB8
:103AC000E7D10246FCF752FB84460B46E1E74FF094
:103AD000FF37A2F21342D7400742DAD012A3D3E94C
:103AE0000023FCF743FB00220023FCF785FF00289E
:103AF000CDD0002C0BDB26EA0706C8E724F00043F4
:103B00000C4A1E43002E18BF14460026BFE7142D92
:103B100008D00123C5F1340503FA05F5AE1928BF15
:103B2000E418E8E70134E6E79C7500883CE4377E5A
:103B3000FFFF0F000000F0BFC1F30A5370B58C46C1
:103B400004460D4616467BBB034621F0004C5CEA5A
:103B5000030328D0324B0022FCF7BEFC314B044655
:103B60009E420D461ADB8C46C1F30A53363B40F2A7
:103B7000FE723344934220DC002B3EDC13F1350F00
:103B80002CDA4CF250339E4217DC05F0004343F030
:103B9000D27141F4B731244841F01F011CA3D3E98D
:103BA0000023FCF799FC70BD40F2FF7E7345DED127
:103BB00002460B46FCF7DAFA70BD05F0004343F00D
:103BC000FC4141F45F1141F4105113A3D3E90023E8
:103BD000164841F03C01FCF77FFC70BD2CF0FF4C17
:103BE00003F136012CF4E00C4CEA0155002220468A
:103BF00029460F4BFCF770FC70BD2CF0FF4C2CF4E9
:103C0000E00C20464CEA035170BD00BFAFF30080CA
:103C100059F3F8C21F6EA5019C7500883CE4377EFD
:103C200000005043B03CFFFF59F3F8C29C75008878
:103C30000000903C5822024B4FF0FF301A60704752
:103C40009C0000205822024B4FF0FF301A60704752
:103C50009C0000205822024B00201A60704700BFD1
:103C60009C0000205822024B4FF0FF301A60704732
:103C70009C0000205822024B4FF0FF301A60704722
:103C80009C000020044A05491368002B08BF0B461E
:103C90001844106018467047A0000020A8000020BB
:103CA000F8B500BFF8BC08BC9E467047F8B500BF29
:083CB000F8BC08BC9E467047F9
:103CB800636F6E66696775726163696F6E20636FA3
:103CC8007272656374610D00636F756E742D3E25A5
:103CD8006C750D0A000000000203040506070809B8
:103CE8000A0B0C0D0E0F1010000000000000000061
:103CF8000000000001020304060708091000002064
:103D080000000000000000000000000000000000AB
:103D1800000000000000000000000000000000009B
:103D2800000000000000000000000000000000008B
:103D3800000000000000000000000000000000007B
:103D4800000000000000000000000000000000006B
:103D5800000000000000000000000000000000005B
:103D6800232D302B2000686C4C006566674546475C
:103D780000303132333435363738394142434445DF
:103D8800460030313233343536373839616263644E
:103D980065660000FB21F93FFB2109407CD91240F0
:103DA800FB2119407A6A1F407CD92240BBFD25407F
:103DB800FB2129403A462C407A6A2F405C47314023
:103DC8007CD932409C6B3440BBFD3540DB8F37409B
:103DD800FB2139401BB43A403A463C405AD83D4052
:103DE8007A6A3F404C7E40405C4741406C104240FC
:103DF8007CD942408CA243409C6B4440AC34454043
:103E0800BBFD4540CBC64640DB8F4740EB5848409A
:103E1800FB21494083F9A200444E6E00FC2915009D
:103E2800D1572700DD34F50062DBC0003C999500CE
:103E3800419043006351FE00BBDEAB00B761C50093
:103E48003A6E2400D24D42004906E00009EA2E00ED
:103E58001C92D100EB1DFE0029B11C00E83EA70012
:103E6800F535820044BB2E009CE98400B42670001E
:103E7800417E5F00D6913900538339009CF43900A4
:103E88008B5F840028F9BD00F81F3B00DEFF970018
:103E98000F980500112FEF000A5A8B006D1F6D0057
:103EA800CF7E360009CB2700464FB7009E663F00FD
:103EB8002DEA5F00BA277500E5EBC7003D7BF100EE
:103EC800F739070092528A00FB6BEA001FB15F00C6
:103ED800085D8D00300356007BFC4600F0AB6B009C
:103EE80020BCCF0036F49A00E3A91D005E61910062
:103EF800081BE60085996500A0145F008D406800E6
:103F080080D8FF0027734D0006063100CA561500F9
:103F1800C9A873007BE260006B8CC0000000000041
:103F280000000040FB21F93F000000002D44743ED2
:103F3800000000809846F83C0000006051CC783BB7
:103F480000000080831BF0390000004020257A38EB
:103F5800000000802282E336000000001DF369356E
:103F6800020000000300000004000000060000003A
:043F78003501000807
:043F7C001101000827
:103F800001000000100000000024F40010000020D8
:103F900000000000283D0008483D0008083D0008DA
:103FA0000000000000000000000000000000000011
:103FB0000000000000000000000000000000000001
:103FC00000000000000000000000000000000000F1
:103FD00000000000000000000000000000000000E1
:103FE00000000000000000000000000000000000D1
:040000050800177563
:00000001FF
