:020000040800F2
:1000000000000220190200086902000869020008C5
:100010006902000869020008690200080000000087
:10002000000000000000000000000000690200085D
:100030006902000800000000690200086902000867
:1000400069020008690200086902000869020008E4
:100050000000000069020008690200086902000847
:1000600069020008690200086902000869020008C4
:1000700069020008690200086902000869020008B4
:1000800069020008690200086902000869020008A4
:100090006902000869020008690200086902000894
:1000A0006902000869020008690200086902000884
:1000B0006902000869020008690200086902000874
:1000C0006902000869020008690200086902000864
:1000D0006902000869020008690200086902000854
:1000E0006902000869020008690200086902000844
:1000F0006902000869020008690200086902000834
:100100006902000869020008690200086902000823
:100110006902000869020008690200086902000813
:100120006902000869020008690200086902000803
:1001300069020008690200086902000869020008F3
:1001400069020008690200086902000869020008E3
:1001500069020008690200086902000869020008D3
:1001600069020008690200086902000869020008C3
:1001700069020008690200086902000869020008B3
:100180006902000869020008000000000000000089
:10019000000000000000000000000000000000005F
:0801A000690200086902000871
:1001A80010B5054C237833B9044B13B10448AFF3A9
:1001B80000800123237010BD000000200000000013
:1001C800B402000808B5034B1BB103490348AFF359
:1001D800008008BD0000000004000020B4020008F0
:1001E80080B400AF094B1B68084A43F4803313609E
:1001F80000BF064B1B6803F40033002BF9D0034BF8
:100208009B68024A43F001039360FEE7003802400E
:100218000D488546AFF300800C480D490D4A002370
:1002280002E0D458C4500433C4188C42F9D30A4AA3
:100238000A4C002301E013600432A242FBD300F011
:1002480011F8FFF7CDFFFEE70000022000000020B4
:1002580000000020D4020008000000201C0000203C
:10026800FEE7000070B50D4D0D4C641BA410002670
:10027800A64209D10B4D0C4C00F018F8641BA410D1
:100288000026A64205D170BD55F8043B98470136B3
:10029800EEE755F8043B98470136F2E7CC02000830
:1002A800CC020008CC020008D0020008F8B500BF54
:1002B800F8BC08BC9E467047F8B500BFF8BC08BC3F
:0402C8009E46704797
:0402CC00CD01000858
:0402D000A901000878
:0400000508000219D4
:00000001FF
